:020000040000FA
:10000000280F0020890200009102000093020000E6
:100010009502000097020000990200000000000015
:100020000000000000000000000000009B02000033
:100030009D020000000000009F0200003D2E000015
:10004000A3020000A5020000A7020000A902000010
:10005000AB02000095300000AF020000B1020000CA
:10006000B3020000B5020000B7020000B9020000B0
:10007000BB020000BD020000BF020000C102000080
:10008000C3020000C502000053360000A12E00008C
:10009000CB020000CD020000CF020000D102000020
:1000A000D3020000D5020000D7020000D9020000F0
:1000B000DB020000DD020000DF020000E1020000C0
:1000C000E3020000E5020000E7020000E902000090
:1000D000EB020000ED020000EF020000F102000060
:1000E000F3020000F502000000000000F70200002B
:1000F000F9020000FB020000FD020000FF02000008
:1001000001030000030300000503000007030000D3
:100110000000000000000000090300000B030000C5
:100120000D0300000F030000110300001303000083
:100130001503000017030000C13200001B0300007C
:1001400000000000000000000000000000000000AF
:100150001D0300001F030000210300002303000013
:10016000000000000000000000000000000000008F
:10017000000000000000000000000000000000007F
:10018000000000000000000000000000000000006F
:10019000000000000000000000000000000000005F
:1001A000000000000000000000000000000000004F
:1001B0002503000027030000290300002B03000093
:1001C0002D0300002F030000310300003303000063
:1001D0003503000037030000390300003B03000033
:1001E0003D0300003F030000410300000000000049
:1001F0000000000043030000450300004703000027
:10020000490300004B030000000000000000000054
:100210004D0300004F030000510300005303000092
:100220005503000057030000590300005B03000062
:100230005D0300005F030000610300006303000032
:100240006503000067030000690300006B03000002
:100250006D0300006F0300007103000073030000D2
:10026000750300007703000079030000DFF80CD06D
:1002700000F088F80048004791400000280F002057
:100280000138FDD1704700003C4880473C4800479A
:10029000FEE7FEE7FEE7FEE7FEE7FEE7FEE7FEE736
:1002A000FEE7FEE7FEE7FEE7FEE7FEE7FEE7FEE726
:1002B000FEE7FEE7FEE7FEE7FEE7FEE7FEE7FEE716
:1002C000FEE7FEE7FEE7FEE7FEE7FEE7FEE7FEE706
:1002D000FEE7FEE7FEE7FEE7FEE7FEE7FEE7FEE7F6
:1002E000FEE7FEE7FEE7FEE7FEE7FEE7FEE7FEE7E6
:1002F000FEE7FEE7FEE7FEE7FEE7FEE7FEE7FEE7D6
:10030000FEE7FEE7FEE7FEE7FEE7FEE7FEE7FEE7C5
:10031000FEE7FEE7FEE7FEE7FEE7FEE7FEE7FEE7B5
:10032000FEE7FEE7FEE7FEE7FEE7FEE7FEE7FEE7A5
:10033000FEE7FEE7FEE7FEE7FEE7FEE7FEE7FEE795
:10034000FEE7FEE7FEE7FEE7FEE7FEE7FEE7FEE785
:10035000FEE7FEE7FEE7FEE7FEE7FEE7FEE7FEE775
:10036000FEE7FEE7FEE7FEE7FEE7FEE7FEE7FEE765
:10037000FEE7FEE7FEE7FEE7FEE70000A903000058
:100380006D020000064C074D06E0E06840F00103F6
:1003900094E8070098471034AC42F6D3FFF76AFFA1
:1003A000EC4F00000C50000010B54FF08070406C16
:1003B000C16D0148884710BD403D80070E48006868
:1003C0000D494969401A002803DD00200B490870D7
:1003D00002E0012009490870074800680649896958
:1003E000401A002803DD00200449487002E0012083
:1003F000024948707047000010010020540000209E
:1004000070B500240BE004EB8400ED4951F82000A6
:10041000400004EB8401EA4A42F82100641C082CE5
:10042000F1DB0221E74800F0F3FBC0F34000E449B0
:1004300009680844E24908600421E24800F0E8FB4A
:10044000C0F38000DE4949690844DD49486108215C
:10045000DC4800F0DDFBC0F3C000D949896A0844DC
:10046000D74988621021D74800F0D2FBC0F30010B2
:10047000D349C96B0844D249C8632021D14800F050
:10048000C7FBC0F34010CE49096D0844CC4908654C
:100490004021CC4800F0BCFBC0F38010C849496E35
:1004A0000844C74948668021C64800F0B1FBC0F344
:1004B000C010C349896F0844C149886700248AE095
:1004C00004EB8400BE4911F8200000F0030038B1AD
:1004D00004EB840011F8200000F00300032814D17D
:1004E00004EB8400B64901EB8000007914284FDA50
:1004F00004EB840001EB80000079401C04EB8401D4
:10050000AF4A02EB8101087142E004EB8400AC4980
:1005100011F8200000F0060038B104EB840011F857
:10052000200000F0060006281ED1052004EB8401FF
:10053000A34A02EB8101087104EB8400114611F813
:10054000200000F0010038B99F48006804EB8401E6
:1005500002EB8101886007E09B48006804EB84019E
:10056000974A02EB8101C86004EB8400944901EBD7
:100570008000007900280BDD04EB840001EB800093
:100580000079401E04EB84018D4A02EB8101087161
:1005900004EB84008A4901EB8000007914280BD118
:1005A00004EB840051F820100120884304EB8401FF
:1005B000834A02EB8101087404EB8400804901EB5B
:1005C0008000007930B9052004EB84017C4A02EBFD
:1005D00081010871641C072CFFF672AF7B4800781C
:1005E00001286CD17A4840687A49496C01EB810155
:1005F000B0EB410F05DC764800687649496B8842CC
:100600000BDA6F4890F8740038B9FF20724908700F
:100610000025284604F08CFB1AE06D4840686D49BF
:10062000096C01EB8101B0EB410F11DC68480068F7
:100630006849096B88420BDB614890F87400012817
:1006400006D10020644908700025284604F070FB9C
:100650005F4840685F49C96C01EB8101B0EB410F15
:1006600005DC5B4800685B49C96B88420BDD544878
:1006700090F84C0038B9FF205749087002252846E9
:1006800004F056FB22E0524840685249896C01EB65
:100690008101B0EB410F19DC4D4800684D49896B71
:1006A000884213DC464890F84C0001280ED1002007
:1006B000494908700225284604F03AFB06E0FF206D
:1006C000454908700225284604F032FB3F4840782F
:1006D00001286CD13E48C0683E49496C01EB81015C
:1006E000B0EB410F05DC3A4880683A49496B8842D3
:1006F0000BDA334890F8600038B9FF2036490870AB
:100700000125284604F014FB1AE03148C06831493D
:10071000096C01EB8101B0EB410F11DC2C488068C2
:100720002C49096B88420BDB254890F860000128B2
:1007300006D10020284908700125284604F0F8FA5F
:100740002348C0682349C96C01EB8101B0EB410F1C
:1007500005DC1F4880681F49C96B88420BDD1848BB
:1007600090F8380038B9FF201B4908700325284647
:1007700004F0DEFA22E01648C0681649896C01EBE5
:100780008101B0EB410F19DC114880681149896B78
:10079000884213DC0A4890F8380001280ED1002066
:1007A0000D4908700325284604F0C2FA06E0FF2030
:1007B000094908700325284604F0BAFA70BD000004
:1007C0003802002000D00540100100205400002015
:1007D0009C0C0020600000204800002010B5022082
:1007E000FFF74EFD0C4CA06910F0010FFBD1E06942
:1007F00010F00C0F0ED1094802F002FB0220FFF7A7
:100800003FFDA06910F0010FFBD1E06910F00C0072
:1008100008BF10BD022010BD00F00A40005800F0D3
:100820002DE9F05FDFF844810646D8F8180010F093
:10083000010FFAD18809C8F80400C1F38300C8F891
:100840000800DFF82C91DFF82CA195084FF0000B81
:1008500065D0C809012101FA00F0C743DAF8001099
:1008600045480140A1F18050B0F5A02017D1DAF839
:1008700000000004000C12D10A20FFF701FD032044
:10088000C9F8FC000A20FFF7FBFC3C4807600A207F
:10089000FFF7F6FCC9F8FCB00A20FFF7F1FC30685E
:1008A000C8F814000A20FFF7EBFCD8F8184014F041
:1008B000010FFAD114F0100F24D0DAF800102E48EE
:1008C0000140A1F18050B0F5A02018D1DAF8000065
:1008D0000004000C13D10A20FFF7D2FC0320C9F852
:1008E000FC000A20FFF7CCFC2548C0F8C0B20A2063
:1008F000FFF7C6FCC9F8FCB00A20FFF7C1FC204690
:10090000BDE8F09F361D6D1E09D0D8F808000028FC
:10091000A4D1D8F80400401CC8F804009EE7DAF817
:10092000001015480140A1F18050B0F5A02018D169
:10093000DAF800000004000C13D10A20FFF7A0FC35
:100940000320C9F8FC000A20FFF79AFC0C48C0F805
:10095000C0B20A20FFF794FCC9F8FCB00A20FFF7E8
:100960008FFCD8F81800BDE8F09F000000F00A40A6
:1009700000D00F4000E00F400000FF70C0E20A40CE
:1009800000E00A400B4B4FEA911CC3F804C0C1F3CE
:1009900083019960910808BF70475A6940F8042B99
:1009A000491E08BF70479A68002AF6D15A68521C3F
:1009B0005A60F2E700F00A40014880697047000081
:1009C00000F00A4038B504460D460094FFF7F4FFE6
:1009D00020B9042229466846FFF722FF38BD0000EF
:1009E0000248016841F470010160704788ED00E041
:1009F0000248016841F040410160704734EF00E077
:100A000010B54FF0804002F043FE4FF08071496C0A
:100A1000086E8047044621464FF0804002F031FEC8
:100A20004FF0804002F023FE10BD000010B54FF0E3
:100A30008070406C81696B4888474FF08070406CD3
:100A400081696848401C88474FF08070406C81691C
:100A50006448801C88474FF08070406C8169614811
:100A6000C01C88474FF08070406C81695D48001D54
:100A700088474FF08070406C81695A48401D884714
:100A80004FF08070406C81695648801D88474FF058
:100A90008070406C81695348C01D88474FF080705A
:100AA000406C81694F48083088474FF08070406C37
:100AB00081694C48093088474A48401C02F06AF96D
:100AC0004848801C02F066F94648001D02F062F9B1
:100AD0004448401D02F05EF94248801D02F05AF978
:100AE0004048C01D02F056F93E48083002F052F965
:100AF0004FF08070006A8021826B3B4890474FF036
:100B00008070006AFF21C26B384890474FF08070B8
:100B1000006A7121C26B364890474FF08070006ABE
:100B20008021826B334890474FF08070006A3C21EF
:100B3000826B4FF0402090472F4830490860081DD5
:100B4000006840F00100091D08600020091F0860CE
:100B50004FF08070006A7F21C26B234890474FF0AE
:100B60008070006AFF227F2103681F4898474FF07A
:100B70008070006A0721826B214890474FF0807097
:100B8000006A3021826B1F4890474FF08070006AE6
:100B90007021826B1C4890474FF08070006A0221E0
:100BA000826B114890474FF08070006A7F21C26BC2
:100BB000104890474FF08070006A0221C26B1348C2
:100BC00090474FF08070006A0222114603680F4878
:100BD00098474FF08070006A0F21C26B0948904718
:100BE00010BD0000000800F000D0054000F00540F6
:100BF00000C0054000E005404B434F4C20D5054068
:100C0000000006400090054000A00540001006408E
:100C100050F82100704740F821207047F8B5F74898
:100C2000807A012841F0D3810020F4498872F44889
:100C3000006847F230510844F2498861F048006882
:100C40004EF660210844EE498860EE48007DFF289A
:100C50006FD1EA48C07A1C2806D02C2817D0342837
:100C600068D0382867D1F1E0E648C07A0A280DD16B
:100C7000E448007B4010E34908730846007B08B94C
:100C8000082001E0DF48007BDE4908733AE1DD48D7
:100C9000C07A0A286BD1DB4840680A2190FBF1F248
:100CA00001FB1200C4B2D748406890FBF1F090FB02
:100CB000F1F201FB1200C5B2D2484068642190FBFA
:100CC000F1F00A2190FBF1F201FB1200C6B2CD480F
:100CD00040684FF47A7190FBF1F00A2190FBF1F239
:100CE00001FB1200C7B2C748007B012806D00228CA
:100CF0000DD0042814D0082827D11DE0601EC4B2EE
:100D0000092C01DD092000E0204604461EE0681E93
:100D1000C5B2092D01DD092000E02846054615E091
:100D2000701EC6B2092E01DD092000E030460646DD
:100D30000CE0E9E01CE0CFE0781EC7B2092F01DD2E
:100D4000092000E03846074600E000BF00BF4FF42E
:100D50007A70784306EBC60101EB061100EB8100C7
:100D600005EB850100EB41002044A6494860C9E03D
:100D7000A448C07A0A2868D1A24840680A2190FB9A
:100D8000F1F201FB1200C4B29E48406890FBF1F002
:100D900090FBF1F201FB1200C5B29A484068642151
:100DA00090FBF1F00A2190FBF1F201FB1200C6B2B8
:100DB000944840684FF47A7190FBF1F00A2190FB5F
:100DC000F1F201FB1200C7B28E48007B012806D069
:100DD00002280DD0042814D0082824D11AE0601C61
:100DE000C4B2092C01DD002000E0204604461BE0CF
:100DF000681CC5B2092D01DD002000E0284605462B
:100E000012E0701CC6B2092E01DD002000E0304661
:100E1000064609E0781CC7B2092F01DD002000E07A
:100E20003846074600E000BF00BF4FF47A707843B1
:100E300006EBC60101EB061100EB810005EB850115
:100E400000EB410020446F4948605BE06D4840681A
:100E5000B0F57A7F27D101206B4908706848006897
:100E60006A490844684948606948006865490860FB
:100E70006748406848606648007A08726448407A6B
:100E800048726348807A88726148C07AC872604844
:100E9000007B08735E48007D087501205749887201
:100EA0003820C87217E05748C07A0A280ED120208F
:100EB00011231A460E210090172003F0D9F851494A
:100EC00048602020C8720F20087304E000204B49BE
:100ED000C87202F05BFC15E020200D231A221621B7
:100EE0000090172003F0C4F84649086000204860CD
:100EF00004200872C872202088720A20C872082054
:100F0000087300BF00BFF8BD3C48C07A1C2807D05A
:100F10002C2872D034287FD0382841F05680EEE358
:100F20003848007D401C374908750846007D15216A
:100F300090FBF1F201FB1200324908750846007D72
:100F400008B9012001E02F48007D2E4908750846A8
:100F5000007D401E14286ED2DFE800F00A21386EB2
:100F600097C8F8F6F5F4F3F2F1F0EFEEEDECEBEAFA
:100F7000202000230D22114600900A2003F078F86B
:100F800020490860234800684860042008724872BD
:100F9000202088720A20C8720F20087379E220206E
:100FA000002316221C2100900C2003F061F8154943
:100FB0000860184840684860042008724872202081
:100FC00088720A20C8720F20087362E22020002372
:100FD00014220A2100900B2003F04AF80949086006
:100FE0000C488068B0F5165F17D90A4880680A2156
:100FF000B0FBF1F00749886011E04CE26801002085
:10100000100100203001002018000020E0930400AF
:101010004C01002060000020F3E3FE488068FE4998
:101020004860042008724872202088720A20C87222
:101030000F2008732DE22BE2202000230D22122125
:1010400000900C2003F014F8F3490860F148C068E0
:1010500010B9F24848600EE0EE48C068062803D197
:10106000EF48ED49486006E0EA48C068022802D12E
:10107000EC48E94948600420E7490872487220209A
:101080008872C8720F20087303E2202000230B220D
:101090000A2100900D2002F0EBFFDF490860DD48D7
:1010A000006930B1202808D040280AD0602810D12B
:1010B0000BE00520D84948600CE00620D64948607E
:1010C00008E00720D449486004E00820D24948607D
:1010D00000E000BF00BF0420CF4908724872202002
:1010E00088720A20C8720F200873D2E120200023E2
:1010F0000B221B210090052002F0BAFFC6490860B0
:10110000C448406910B90120486006E0C148406900
:10111000082802D10220C04948600420BE49087254
:101120004872202088720A20C8720F200873B0E12C
:1011300098E180E15DE145E12DE114E1FBE0E2E0D1
:10114000BFE08AE055E02FE017E0FFE72020012311
:101150000D22114600900A2002F08AFFAE49086075
:10116000AC48806948600420087248722020887268
:101170000A20C8720F2008738BE120200123162259
:101180001C2100900C2002F073FFA3490860A148C5
:10119000C0694860042008724872202088720A20C2
:1011A000C8720F20087374E12020012314220A2141
:1011B00000900B2002F05CFF974908609548006A98
:1011C000B0F5165F07D99348006A0A21B0FBF1F029
:1011D0009049086201E08F48006A8F494860042006
:1011E00008724872202088720A20C8720F20087383
:1011F0004FE1202001230D22122100900C2002F04B
:1012000037FF854908608348406A10B983484860C1
:1012100019E08048406A062803D181487E49486029
:1012200011E07C48406A022803D17E487A49486030
:1012300009E020201D231A4619460090184602F0A6
:1012400017FF7549486004207349087248722020CE
:101250008872C8720F2008731BE1202001230B2223
:101260000A2100900D2002F003FF6B4908606948D5
:10127000806A30B1202808D040280AD0602810D1D8
:101280000BE00520644948600FE006206249486091
:101290000BE007206049486007E008205E4948608D
:1012A00003E008205C49486000BF00BF04205A49A1
:1012B00008724872202088720A20C8720F200873B2
:1012C000E7E0202001230B221B210090052002F0E3
:1012D000CFFE514908604F48C06A10B901204860EC
:1012E00006E04C48C06A082802D102204A494860FA
:1012F0000420494908724872202088720A20C87266
:101300000F200873C5E0202000231A461B210090FF
:101310001A2002F0ADFE404908603E48006B48606C
:101320000420087202204872202088720A20C872A5
:101330000F200873ADE0202000230A221B2100901B
:101340001A2002F095FE344908603248406B48602C
:101350000420087202204872202088720A20C87275
:101360000F20087395E0202000231A460F210090DB
:101370001A2002F07DFE284908602648806B4860EC
:101380000420087202204872202088720A20C87245
:101390000F2008737DE0202000230A220F210090F7
:1013A0001A2002F065FE1C4908601A48C06B4860AC
:1013B000042008724872202088720A20C8720F2008
:1013C000087366E0202000231A461B2100900520A8
:1013D00002F04EFE104908600E48006C4860042080
:1013E00008724872202088720A20C8720F20087381
:1013F0004FE0202000230A221B210090052002F04C
:1014000037FE054908600348406C486004200872B4
:10141000487209E06000002030010020AEF20A00AE
:10142000D5510700ADF10B00202088720A20C87248
:101430000F2008732DE0202000231A460F21009072
:10144000052002F015FEF8490860F848806C4860F5
:10145000042008724872202088720A20C8720F2067
:10146000087316E0202000230A220F210090052097
:1014700002F0FEFDEC490860EC48C06C48600420B6
:101480000872202088720A20C8720F20087300E0BA
:1014900000BF00BFE1E3E448007D401E142875D280
:1014A000DFE800F00A2A4CB1F3F11A3B7FCCF0EFF1
:1014B000EEEDECEBEAE9E8E7DB484068401EDA498C
:1014C000486008464068012801DAF72001E0D64864
:1014D0004068D5494860CAE1D3484068401ED249B7
:1014E000486008464068012801DAF72001E0CE484C
:1014F0004068CD494860BAE1CB48406880F00100BF
:10150000C949486008464068012801DD012001E022
:10151000C5484068C4494860A9E1C348406880F0B4
:101520000100C149486008464068012801DD0120EA
:1015300001E0BD484068BC49486098E1BA4840684D
:10154000B0F5F06F04D14FF4B460B749486027E0BC
:10155000B5484068B0F5B46F04D14FF41650B249A5
:1015600048601DE0B0484068B0F5165F04D14FF404
:101570009650AD49486013E0AB484068B0F5965FBF
:1015800005D14FF41660A849486009E06EE1A6480D
:101590004068B0F5166F03D14FF4F060A24948607F
:1015A00065E1A1484068B0F5F06F04D14FF4B46034
:1015B0009D49486026E09C484068B0F5B46F04D16E
:1015C0004FF41650984948601CE097484068B0F5C1
:1015D000165F04D14FF496509349486012E0924848
:1015E0004068B0F5965F04D14FF416608E494860AC
:1015F00008E08D484068B0F5166F03D14FF4F060F5
:101600008949486033E1884840688949884203D164
:1016100088488549486010E0834840688549884289
:1016200003D185488049486007E07F484068824987
:10163000884202D17E487C49486018E17A48406877
:101640007B49884203D17B487749486010E076485F
:1016500040687849884203D177487349486007E079
:10166000714840687449884202D171486E494860A7
:10167000FDE0EAE0CBE0B8E0A6E094E082E070E0D4
:101680005EE04DE01EE03BE0FFE76748406805286C
:1016900011D006280BD0072805D008280FD1072025
:1016A000614948600CE006205F49486008E0052079
:1016B0005D49486004E008205B49486000E000BFE5
:1016C00000BFD4E058484068052811D006280BD048
:1016D000072805D008280FD10720534948600CE09F
:1016E00006205149486008E005204F49486004E061
:1016F00008204D49486000E000BF00BFB7E0ADE200
:1017000049484068401E48494860084640680128EA
:1017100001DA022001E04448406843494860A6E0FD
:1017200041484068401E40494860084640680128DA
:1017300001DA022001E03C4840683B49486096E0FD
:1017400039484068401E384948600846406810F5EE
:10175000C87F01DA394801E03348406832494860BF
:1017600085E031484068401E2F494860084640687F
:1017700010F5C87F01DA314801E02B4840682A495A
:10178000486074E028484068401E27494860084681
:10179000406810F5C87F01DA284801E02248406817
:1017A0002149486063E020484068401E1E49486067
:1017B0000846406810F5C87F01DA204801E01A4861
:1017C00040681949486052E017484068401E164971
:1017D00048600846406810F5C87F01DA174801E004
:1017E000114840681049486041E00F484068401E79
:1017F0000D4948600846406810F5C87F02DA0F4876
:1018000002E036E008484068074948602FE0064893
:101810004068401E044948600846406810F5C87F8B
:101820000EDA06480EE000003001002060000020C3
:10183000ADF10B00D5510700AEF20A0018FCFFFF16
:10184000FC484068FB49486011E0FA484068401E87
:10185000F84948600846406810F5C87F01DAF64844
:1018600001E0F4484068F349486000E000BF00BF71
:10187000ACE3F048007D401E142875D2DFE800F08C
:101880000A2A4CB1FBF51A3B7FD0F4F3F2F1F0EFEA
:10189000EEEDECEBE7484068401CE649486008463E
:1018A0004068F72801DD012001E0E2484068E14995
:1018B0004860D1E1DF484068401CDE494860084686
:1018C0004068F72801DD012001E0DA484068D94985
:1018D0004860C1E1D748406880F00100D5494860C0
:1018E00008464068012801DD012001E0D148406838
:1018F000D0494860B0E1CF48406880F00100CD4950
:10190000486008464068012801DD012001E0C9481F
:101910004068C84948609FE1C6484068B0F5166F06
:1019200004D14FF49650C349486027E0C14840684D
:10193000B0F5965F04D14FF41650BE4948601DE0E3
:10194000BC484068B0F5165F04D14FF4B460B949A3
:10195000486013E0B7484068B0F5B46F05D14FF464
:10196000F060B449486009E075E1B2484068B0F5FC
:10197000F06F03D14FF41660AE4948606CE1AD489A
:101980004068B0F5166F04D14FF49650A9494860ED
:1019900026E0A8484068B0F5965F04D14FF4165091
:1019A000A44948601CE0A3484068B0F5165F04D124
:1019B0004FF4B4609F49486012E09E484068B0F51B
:1019C000B46F04D14FF4F0609A49486008E0994838
:1019D0004068B0F5F06F03D14FF416609549486048
:1019E0003AE1944840689549884203D19448914926
:1019F000486014E08F4840689149884203D191487B
:101A00008C4948600BE08B4840688E49884203D17E
:101A10008A488849486002E08848864948601BE156
:101A2000844840688549884203D185488149486097
:101A300020E0804840688249884203D181487D493E
:101A4000486017E07B4840687E4988420FD17B4858
:101A5000784948600EE0E1E0CFE0BDE0ABE099E01E
:101A600087E075E063E052E023E040E003E0734884
:101A700070494860F0E06F484068052806D00628A5
:101A800008D007280AD0082810D10BE006206949A1
:101A900048600CE007206749486008E00820654975
:101AA000486004E005206349486000E000BF00BFD3
:101AB000D2E060484068052806D0062808D00728EC
:101AC0000AD0082810D10BE006205A4948600CE0E3
:101AD00007205849486008E008205649486004E05B
:101AE00005205449486000E000BF00BFB4E0514801
:101AF0004068401C4F49486008464068022801DDA4
:101B0000012001E04B4840684A494860A4E0494848
:101B10004068401C4749486008464068022801DD8B
:101B2000012001E0434840684249486094E0414850
:101B30004068401C3F49486008464068B0F57A7FDD
:101B400001DD414801E03B4840683A49486083E094
:101B500038484068401C3749486008464068B0F53E
:101B60007A7F01DD384801E03248406831494860F9
:101B700072E030484068401C2E4948600846406882
:101B8000B0F57A7F01DD304801E02A4840682949F4
:101B9000486061E027484068401C26494860084684
:101BA0004068B0F57A7F01DD274801E021484068B0
:101BB0002049486050E01F484068401C1D4948606B
:101BC00008464068B0F57A7F01DD1F4801E01948FA
:101BD0004068184948603FE016484068401C154975
:101BE000486008464068B0F57A7F01DD164801E09C
:101BF000104840680F4948602EE00E484068401C7D
:101C00000C49486008464068B0F57A7F01DD0E480F
:101C100001E008484068074948601DE00548406801
:101C2000401C0449486008464068B0F57A7F0DDDE5
:101C300005480DE03001002018FCFFFFAEF20A005D
:101C4000D5510700ADF10B0070FEFFFFFE48406864
:101C5000FD49486000E000BF00BFB7E1FA48007DE1
:101C600000287DDDF948007800BB0020F849C872E3
:101C7000F5480068F7490860F34840684860F24852
:101C8000007A0872F048407A4872EF48807A887289
:101C9000ED48C07AC872EC48007B0873EA48007DC2
:101CA0000875002001F072FDFFF72DB9E648007DB0
:101CB000401E14287ED2DFE800F00A162298D0EFEA
:101CC000101C5DB4FDEDECEBEAE9E8E7E6E5DE4982
:101CD00048680021FEF776FE63E1DB494868182179
:101CE000FEF770FE5DE1D84948680421FEF76AFE00
:101CF00057E1D54948681C21FEF764FE51E1D248FE
:101D00004068B0F5166F04D1CF4948680821FEF746
:101D100059FECD484068B0F5965F04D1CA4948687D
:101D20000821FEF74FFEC8484068B0F5165F04D1A1
:101D3000C54948680821FEF745FEC3484068B0F52C
:101D4000B46F07D1C049496801EB810148000821FF
:101D5000FEF738FEBC484068B0F5F06F09D100E0EE
:101D600032E1B949496801EB810148000821FEF7D9
:101D700029FE16E1B4484068B0F5166F04D1B249A7
:101D800048680821FEF71EFEAF484068B0F5965F30
:101D900004D1AD4948680821FEF714FEAA484068FE
:101DA000B0F5165F04D1A84948680821FEF70AFE7D
:101DB000A54800E0F4E04068B0F5B46F07D1A2494F
:101DC000496801EB810148000821FEF7FBFD9E48B0
:101DD0004068B0F5F06F07D19B49496801EB81017C
:101DE00048000821FEF7EEFDDBE0974840689A497D
:101DF000884203D10C210020FEF7E4FD92484068A0
:101E00009649884203D10C210620FEF7DBFD8E485F
:101E100040689349884203D10C210220FEF7D2FD8D
:101E2000BFE0894840688C49884203D124210020C2
:101E3000FEF7C8FD844840688849884203D12421C0
:101E40000620FEF7BFFD804840688549884203D1DF
:101E500024210220FEF7B6FDA3E07B484068052858
:101E600006D0062809D0072817D008281FD119E066
:101E700010210020FEF7A6FD1AE010212020FEF719
:101E8000A1FD15E086E07FE078E071E06AE063E0C4
:101E90005CE055E042E00DE02EE010214020FEF72E
:101EA00091FD05E010216020FEF78CFD00E000BFF1
:101EB00000BF76E064484068052806D0062809D0AF
:101EC00007280CD0082814D10EE028210020FEF7A6
:101ED00079FD0FE028212020FEF774FD0AE028217B
:101EE0004020FEF76FFD05E028216020FEF76AFD27
:101EF00000E000BF00BF54E053484068012804D10F
:101F000014210020FEF75EFD07E04F4840680228DC
:101F100003D114210820FEF755FD42E04A484068ED
:101F2000012804D12C210020FEF74CFD07E0464893
:101F30004068022803D12C210820FEF743FD30E041
:101F4000414948683021FEF73DFD2AE03E49486896
:101F50003421FEF737FD24E03B4948683021FEF785
:101F600031FD1EE0384948683421FEF72BFD18E0AA
:101F7000354948683021FEF725FD12E032494868AE
:101F80003421FEF71FFD0CE02F4948683021FEF791
:101F900019FD06E02C4948683421FEF713FD00E0E6
:101FA00000BF00BF0F2028494875F02088750846FB
:101FB000807D08732B48006800F5FA6029490861A4
:101FC00002F0BCF901F070FA00E000BF00BF204849
:101FD000807A02286FD12348006847F230510844C4
:101FE000194988611A48C07A1C2806D02C2809D0C3
:101FF00034287CD038287BD1C1E21A4800681249C5
:102000008861BEE21048007D401E142871D2DFE8CE
:1020100000F00A7070707070397070707070587C59
:102020009CBCDCFFF8F70F4800680E49C968401AED
:10203000322808DD0B4800680A49C8600248406839
:10204000401E014948600FE03001002018000020C8
:10205000680100204C010020AEF20A00D5510700B3
:10206000ADF10B00100100200020FE490873084666
:102070004068012801DAF72001E0FA484068F94990
:10208000486026E1F8480068F749C968401A3228D4
:1020900008DDF5480068F449C860F2484068401E11
:1020A000F04948600020EF4908730846406801285D
:1020B00002DAF72002E065E2EA484068E949486050
:1020C00007E1E9480068E849C968401A322808DD94
:1020D000E5480068E449C860E2484068401EE149BC
:1020E00048600020DF4908730846406802E0F2E0DB
:1020F00046E2EDE010F5C87F02DA4FF47A7001E0B5
:10210000D8484068D7494860E3E0D7480068D649D6
:10211000C968401A322808DDD3480068D249C8602F
:10212000D0484068401ECF4948600020CD49087320
:102130000846406810F5C87F02DA4FF47A7001E073
:10214000C8484068C7494860C3E0C7480068C649F6
:10215000C968401A322808DDC3480068C249C8600F
:10216000C0484068401EBF4948600020BD49087310
:102170000846406810F5C87F02DA4FF47A7001E033
:10218000B8484068B7494860A3E0B7480068B64916
:10219000C968401A322808DDB3480068B249C860EF
:1021A000B0484068401EAF4948600020AD49087300
:1021B0000846406810F5C87F02DA4FF47A7001E0F3
:1021C000A8484068A749486083E0A7480068A64936
:1021D000C968401A322808DDA3480068A249C860CF
:1021E000A0484068401E9F49486000209D490873F0
:1021F0000846406810F5C87F05DA4FF47A7004E0AD
:1022000046E025E004E0974840689649486060E071
:10221000954800689449C968401A322808DD9248F8
:1022200000689149C8608F484068401E8D494860E9
:1022300000208C4908730846406810F5C87F02DA10
:102240004FF47A7001E0874840688649486040E072
:10225000854800688449C968401A322808DD8248E8
:1022600000688149C8607F484068401E7D494860D9
:1022700000207C4908730846406810F5C87F02DAE0
:102280004FF47A7001E0774840687649486020E072
:10229000754800687449C968401A322808DD7248D8
:1022A00000687149C8606F484068401E6D494860C9
:1022B00000206C4908730846406810F5C87F02DAB0
:1022C0004FF47A7001E0674840686649486000E072
:1022D00000BF00BF55E16348007D401E14287CD23A
:1022E000DFE800F00A7B7B7B7B7B287B7B7B7B7B37
:1022F000466586A5CBEAFDFC5B4800685A49C9687B
:10230000401A322808DD584800685749C8605548C7
:102310004068401C534948600020524908730846F1
:102320004068F72801DD012001E04E4840684D4932
:10233000486022E14C4800684B49C968401A32287D
:1023400008DD494800684849C86046484068401C64
:102350004449486000204349087308464068F7280C
:1023600001DD012001E03F4840683E49486004E14A
:102370003D4800683C49C968401A322808DD3A489F
:1023800000683949C86037484068401C3549486092
:1023900000203449087308464068B0F57A7F01DDB3
:1023A000324801E02F4840682E494860E5E02E4859
:1023B00000682D49C968401A322808DD2A4800689B
:1023C0002949C86027484068401C264948600020C9
:1023D000244908730846406800E0CDE0B0F57A7FF4
:1023E00001DD224801E01F4840681E494860C4E002
:1023F0001D4800681C49C968401A322808DD1A487F
:1024000000681949C86017484068401C1549486071
:1024100000201449087308464068B0F57A7F01DD52
:10242000124801E00F4840680E494860A5E00E4898
:1024300000680D49C968401A322808DD0A4800685A
:102440000949C86007484068401C064948600020A8
:102450000449087308464068B0F57A7F08DD0348F0
:1024600008E00000300100201001002070FEFFFF96
:102470004F4840684E4948607FE04E4800684D49EB
:10248000C968401A322808DD4A4800684949C860CE
:1024900047484068401C464948600020444908734A
:1024A00008464068B0F57A7F01DD434801E04048C6
:1024B00040683F49486060E03E4800683D49C9685F
:1024C000401A322808DD3B4800683A49C86038485D
:1024D0004068401C36494860002001E02DE00DE0D6
:1024E0003349087308464068B0F57A7F01DD324809
:1024F00001E02F4840682E4948603EE02D480068C2
:102500002C49C968401A322808DD2A480068294940
:10251000C86027484068401C25494860002024497D
:10252000087308464068B0F57A7F01DD224801E073
:102530001F4840681E4948601FE01E4800681D494A
:10254000C968401A322808DD1A4800681949C8606D
:1025500017484068401C1649486000201449087319
:1025600008464068B0F57A7F01DD134801E0104865
:1025700040680F49486000E000BF00BF01E000E094
:1025800000BF00BF0D48007B01280DD100200B4982
:1025900008730846C07A2C2803D00846C07A34282D
:1025A00002D10F200249087300BFFEF7ACBC000047
:1025B000300100201001002070FEFFFF68010020A4
:1025C00070B502460B4615464FF6FF7000240021F9
:1025D00012E06E5C704000240BE000F001062EB1AA
:1025E000C0F34F004AF20106704001E0C0F34F0013
:1025F000641C082CF1DB491C9942EADB70BD70B504
:10260000044600F015FB604340F6B831B0FBF1F52D
:102610002846FDF735FE70BD70B5044600F008FB96
:1026200060430349B0FBF1F52846FDF729FE70BD74
:10263000C0C62D001CB504A103C9CDE900010821C5
:10264000684600F029FE1CBD110400000002735B07
:102650001CB504A103C9CDE900010821684600F0BA
:102660001BFE1CBD12040000000273682DE9FF4F21
:1026700083B082468B46DDE91045BAF1000F73DB6B
:10268000BBF1000F70DB57465E4604FB04F060436D
:102690006043401EB84206D305FB05F0684368431B
:1026A000401EB04202D207B0BDE8F08FFE49087864
:1026B000C11700EB91718910A0EB8101C1B3012911
:1026C00021D002290ED003294CD1B7FBF4F004FB32
:1026D000107000F0FF09B6FBF5F005FB106000F08C
:1026E000FF083FE0B7FBF4F0B0FBF4F104FB11008E
:1026F00000F0FF09B6FBF5F0B0FBF5F105FB1100AA
:1027000000F0FF082EE0B7FBF4F0B0FBF4F0B0FBF4
:10271000F4F104FB110000F0FF09B6FBF5F0B0FB8B
:10272000F5F0B0FBF5F105FB110000F0FF0819E032
:10273000FFE7B7FBF4F0B0FBF4F0B0FBF4F0B0FB54
:10274000F4F104FB110000F0FF09B6FBF5F0B0FB5B
:10275000F5F0B0FBF5F0B0FBF5F105FB110000F072
:10276000FF0800BF37E1FFE7BAF1000F67DABBF1FE
:10277000000F64DBAAF10107FF435E4604FB04F08F
:102780006043401EB84206D305FB05F0684368432A
:10279000401EB04200D286E7C3490878C11700EB5B
:1027A00091718910A0EB8101C1B3012921D00229C7
:1027B0000ED0032942D1B7FBF4F004FB107000F0F7
:1027C000FF09B6FBF5F005FB106000F0FF0835E0EF
:1027D000B7FBF4F0B0FBF4F104FB110000F0FF09CB
:1027E000B6FBF5F0B0FBF5F105FB110000F0FF08BA
:1027F00024E0B7FBF4F0B0FBF4F0B0FBF4F104FB21
:10280000110000F0FF09B6FBF5F0B0FBF5F0B0FBEE
:10281000F5F105FB110000F0FF080FE0FFE74FF0B6
:102820001D09B6FBF5F0B0FBF5F0B0FBF5F0B0FB21
:10283000F5F105FB110000F0FF0800BFCBE0BAF195
:10284000000F67DBBBF1000F64DA57465E46761E69
:10285000F64304FB04F060436043401EB84205D3D6
:1028600005FB05F06843401EB04200D21BE78E49CD
:102870000878C11700EB91718910A0EB8101C1B3F9
:10288000012921D002290ED0032942D1B7FBF4F04F
:1028900004FB107000F0FF09B6FBF5F005FB1060BB
:1028A00000F0FF0835E0B7FBF4F0B0FBF4F104FBF7
:1028B000110000F0FF09B6FBF5F0B0FBF5F105FBE8
:1028C000110000F0FF0824E0B7FBF4F0B0FBF4F0D7
:1028D000B0FBF4F104FB110000F0FF09B6FBF5F0CA
:1028E000B0FBF5F0B0FBF5F105FB110000F0FF08BF
:1028F0000FE0FFE7B7FBF4F0B0FBF4F0B0FBF4F04F
:10290000B0FBF4F104FB110000F0FF094FF01D08CB
:1029100000BF60E0BAF1000F5DDABBF1000F5ADAD8
:1029200057467F1EFF435E46761EF64304FB04F0C7
:102930006043401EB84205D305FB05F06843401EC6
:10294000B04200D2AFE658490878C11700EB917148
:102950008910A0EB8101C1B3012921D002290ED039
:10296000032937D1B7FBF4F004FB107000F0FF0926
:10297000B6FBF5F005FB106000F0FF082AE0B7FB9E
:10298000F4F0B0FBF4F104FB110000F0FF09B6FB1A
:10299000F5F0B0FBF5F105FB110000F0FF0819E0C0
:1029A000B7FBF4F0B0FBF4F0B0FBF4F104FB110062
:1029B00000F0FF09B6FBF5F0B0FBF5F0B0FBF5F168
:1029C00005FB110000F0FF0804E0FFE74FF01D09D0
:1029D000C84600BF00BF344A1178CA1701EB927293
:1029E0009210A1EB8203069A934201D17F2200E06C
:1029F000FF222E4B13F808301A402B4B1878C317C0
:102A000000EB93739B10A0EB830C059B9C4501D1BD
:102A10007F2300E0FF23DFF894C01CF809C003EA1D
:102A20000C0342EA032202920298C0430290002063
:102A30001F490860804619E0029800F4004020B168
:102A400001201B49091F086003E000201849091FE5
:102A500008600020164914390860012008600298B7
:102A60004000029008F1010000F0FF08B8F1100FDB
:102A7000E2DB00220C490978C81CC11700EB9171F8
:102A80008910A0EB81010B4B53F821100A60064915
:102A90000978C81CC11700EB91718910A0EB810166
:102AA000091D53F8211007E000000020E84D000048
:102AB000947FB842084E00000A60384800683849E0
:102AC0000969B0FBF1F201FB120035490969B0EB6D
:102AD000510F19D20121334A1078C21700EB9272BC
:102AE0009210A0EB820253F82220116001222D499E
:102AF0000878C11700EB91718910A0EB8101091DC5
:102B000053F821100A6041E02549087B01F070FA72
:102B100024490978CA17019101EB92718A10019931
:102B2000A1EB8201084100F00100C1431D4800787B
:102B3000C217009000EB927082100098A0EB820008
:102B4000194A52F8200001601549087B01F050FA3B
:102B500014490978CA17019101EB92718A10019901
:102B6000A1EB8201091D084100F00100C1430D489D
:102B70000078C217009000EB927082100098A0EBD2
:102B80008200001D084A52F82000016005480078C4
:102B9000401C0449087000BF85E5000010010020BA
:102BA0003001002000000020084E000070B50446EF
:102BB00001201D490860091F08601B49091D0860A4
:102BC0001A4908600520FFF71AFD0120174908601F
:102BD0003C20FFF714FD00201349091F0860052061
:102BE000FFF70DFD002518E000200F49086004F0F4
:102BF000010018B10120091D086003E000200A4906
:102C0000091D08606410C820FFF706FD0120064971
:102C10000860C820FFF700FD6D1C082DE4DB0120D3
:102C20000149091F086070BD887FB242807FC2429F
:102C300070B44E4D2B6E296F11F0004F14BF01F090
:102C4000700003F03000202808BF494818D005DC88
:102C500088B1102808BF474812D009E0302808BFC3
:102C600047F230500CD0702808BF4FF4004007D016
:102C700070BC002070477C203F4A00EA13101058B7
:102C80004FF0FF3211F0004F02D011F4006F06D068
:102C900001F0004C03F400645CEA040C3BD1D5F86D
:102CA00060C1D5F8644104F01F06761CC4F3042407
:102CB000641C16FB04F46400B0FBF4F0CCF30904CC
:102CC0004443CCF3892C00FB0CF0D5F810C004EB86
:102CD000902043F480030CF4704CBCF5804F08BF87
:102CE000264A18D00EDCBCF5805F08BF244A12D0FB
:102CF000BCF5005F08BF234A0DD0BCF5405F08BF9C
:102D0000214A08E0BCF5E04F08BF204A03D0BCF5DB
:102D1000104F08BF1E4A13F4800F21D011F0004F4E
:102D200019D011F0804F09D011F4006F0CD001F0D0
:102D3000004C03F400635CEA030305D0C1F3C55102
:102D4000491CB0FBF1F00BE04000C1F38651491C77
:102D5000B0FBF1F004E0C3F3C351491CB0FBF1F048
:102D6000824238BF104670BC7047000000E00F4040
:102D700000093D000024F400304E0000005A6202B9
:102D800000B4C404AA40F90380F0FA0240787D013F
:102D9000002D31010449CA6E00F00F00012303FA2F
:102DA00000F01043C866704700E00F40C0F30723EF
:102DB0000749C0B2194401F07043C1F3130143EA5B
:102DC000411141EA800040F000700122026070472A
:102DD00000E60F40C0F307220849C0B2114401F0D9
:102DE0007042C1F3130142EA411141EA800040F010
:102DF00000700068002818BF0120704700EA0F40EB
:102E0000C0F307230C49C0B2194401F07043C1F369
:102E1000130143EA411141EA800040F0007181B0A2
:102E200001220A60002200920098401C00901028A5
:102E3000FAD30A6001B0704700E50F4010B50448AE
:102E40000068401C0249086000F0EEFC10BD000064
:102E50001001002010B5114800684FF47A71B0FBE2
:102E6000F1F44FF08070806B4169204688474FF045
:102E70008070806C202182690F2090474FF0807114
:102E8000896BC86880474FF08071896B48688047BC
:102E90004FF08071896C4868804710BD3400002075
:102EA00010B54FF08070C06B012102684B4890470D
:102EB0004B48007900287DDD4948406F401C20B117
:102EC0004748406F401C464948674548406F80B1BD
:102ED0004348406F401E0A21B0FBF1F201FB120093
:102EE00038B94FF08070006A0222114603683D48ED
:102EF00098473B48406FC0B13948406FC01E0A2117
:102F0000B0FBF1F201FB120078B94FF08070006A5B
:102F1000002202210368334898474FF08070006A0E
:102F20000022042103682F4898472D48406F00284D
:102F300053D02B48406F08380A21B0FBF1F201FB57
:102F40001200002849D12648806804782448806807
:102F5000401C2349886008460078401C0870002007
:102F6000C87031E04FF08070006A002204210368CD
:102F70001C48984704F0010040B14FF08070006A8F
:102F80000822114603681748984707E04FF0807001
:102F9000006A002208210368124898476410142030
:102FA000FFF73AFB4FF08070006A04221146036875
:102FB0000C4800E011E098471420FFF72DFB08486B
:102FC000C078401C0649C8700548C0780828C9DB8D
:102FD00003480079401E0249087110BD00000340FB
:102FE000AC0C00200090054070B505460C460F481B
:102FF00000780F49087021462846FFF7E1FA0C498E
:103000000855601CC4B2611E2846FFF7D9FAC0F308
:10301000072007490855601CC4B2064804700648DA
:1030200000680A300349486070BD0000EC020020CF
:10303000FC0400204C0000201001002070B5054663
:10304000002405E00648015D064800F027FA641CEC
:10305000AC42F7DB0020044981F8060170BD000096
:10306000FC04002000C00040EC02002070B50446C3
:103070000D4607E014F8011B4FF080704069C26BE9
:1030800003489047281EA5F10105F3D170BD00004B
:1030900000C0004070B57B4890F8060158B901F0B7
:1030A00025FB78480146C1F80001002081F807019E
:1030B000FF2081F806014FF0807040690121C26C49
:1030C00071489047714908604FF080704069026D07
:1030D000084601686C48904713E06B4800F0D8F947
:1030E0006849D1F8001108706648D0F80001401C0A
:1030F0006449C1F80001084690F80401401C81F8B9
:1031000004014FF080704069C16A5F488847002819
:10311000E3D15C4800785E490968884204D0002009
:10312000584981F8060170BD5648407802280FD0F2
:103130005448407803280BD052484078042807D0E0
:1031400050484078052803D04E484078062813D1CF
:103150004C4890F80401082804D10120494981F81D
:10316000070109E0474890F80401082804DD002021
:10317000444981F80601D6E742484078102817D123
:10318000404890F8041180790930814204D101202F
:103190003C4981F807010BE03A4890F80411807926
:1031A0000930814204DD0020364981F80601BAE782
:1031B000344890F804011E2804DD0020314981F8CC
:1031C0000601B0E72F4890F80701012857D12D4C90
:1031D0006578204690F80401811E2046FFF7F0F93B
:1031E000C0B2214691F80411214411F8021C884212
:1031F00010D1204690F80401811E2046FFF7E0F927
:10320000C0F30720214691F80411214411F8011C54
:10321000884204D000201B4981F8060183E71D483D
:10322000006800F6B8301B49C861052D17D006DCD0
:10323000022D0BD0032D0CD0042D1CD10CE0062D3B
:1032400010D0102D11D0182D15D111E001F0C8FAB1
:1032500014E001F049FB11E001F0A6FB0EE001F0E3
:1032600009FC0BE001F050FC08E001F0E3FC05E094
:1032700001F05CFD02E000F035FA00BF00BF00BFC6
:1032800051E70000EC02002000C000404400002094
:10329000600000201001002070B504460D4607E0D4
:1032A00014F8011B4FF080704069C26B03489047CF
:1032B000281EA5F10105F3D170BD000000200140DA
:1032C00010B56E4890F8060158B901F023FA6B4822
:1032D0000146C1F80001002081F80701FF2081F8B4
:1032E00006014FF0807040690121C26C644890472C
:1032F000644908604FF080704069026D08460168BB
:103300005F48904713E05E4800F0C2F85B49D1F88F
:10331000001108705948D0F80001401C5749C1F805
:103320000001084690F80401401C81F804014FF0A8
:1033300080704069C16A524888470028E3D14F48ED
:103340000078112803D04D480078122807D14B4847
:103350004078042803D149488078042804D000200C
:10336000464981F8060110BD444890F80401092837
:1033700004D10120414981F8070109E03F4890F854
:103380000401092804DD00203C4981F80601EAE730
:103390003A4890F8070101286DD1384C204690F842
:1033A0000401811E2046FFF70BF9C0B2214691F8B7
:1033B0000411214411F8021C884210D1204690F8D3
:1033C0000401811E2046FFF7FBF8C0F307202146C9
:1033D00091F80411214411F8011C884204D0002006
:1033E000264981F80601BEE7E078C0EB002021798C
:1033F0000144224800781138234A02EBC0004160A2
:103400001E480078112805D12048006800F6B83021
:103410001E49486119480078122805D11B480068E8
:1034200000F6B83019498861607900F0800010B169
:10343000802819D10AE0A179607901EB00210F48B9
:1034400000781138104A42F830100EE0A179607906
:1034500000F07F0001EB002041420848007811385D
:10346000094A42F8301000E000BF00BF00200349C5
:1034700081F8060177E700BF75E70000F40300203C
:1034800000200140440000209C0C0020100100207E
:10349000816911F0100FFBD100687047826912F04A
:1034A000200FFBD10160704770B54FF08070406C09
:1034B00081693F4888474FF08070006A816E012023
:1034C00088474FF08070006A816E40F20140884763
:1034D0004FF08070006A0321426D4FF0402090470A
:1034E000FFF7A6FB0546334800693249496908439E
:1034F0003049C96840EA01032E4882684FF0807065
:103500004069294644692C48A0474FF08070806C80
:103510000168152088474FF0807040695021426C47
:1035200025489047082125A0FFF7A0FD4FF08070A7
:10353000406C81691E48801D88474FF08070006A8A
:10354000816E204888474FF08070006A816E1E4867
:1035500088474FF08070006A3021426D1B489047C9
:10356000FFF766FB05461348806A1249C96A08439B
:103570001049496A40EA01030E48026A4FF0807020
:103580004069294644691248A0474FF08070806C1A
:1035900001684E2088474FF0807040695021426C8E
:1035A0000B48904708210BA0FFF760FD70BD00009D
:1035B000001800F06000002000C000403073637508
:1035C0007373000001100300011403000070004039
:1035D000002001403673637573730000F0B5034635
:1035E0000C461546002130E0012000EB41001F5C35
:1035F000002000EB4100185C07EB002002B26618C7
:10360000A6F5A04008281CD2DFE800F00405060754
:103610001011121300BF00BF00BF12F5C87F02DBFC
:10362000B2F52F7F01DD0846F0BD0CE000BF00BF02
:1036300000BF002A02DBB2F57A7F01DD0846F3E71E
:1036400001E06420F0E700BF491CA942CCDB642004
:10365000EAE710B54FF0804000F006F810BD816831
:1036600041F00101816070470121C1607047012173
:10367000C0F8001C7047D0F8000C012818BF0020CB
:10368000704701607047816841F0020181607047B6
:103690000149C0F8001C704751E5CC1A40687047DA
:1036A00002E008C8121F08C1002AFAD1704770470B
:1036B000002001E001C1121F002AFBD17047000069
:1036C00010B50648407880300549487082208870DF
:1036D00003210348FFF788FC10BD0000EC02002026
:1036E000FC04002010B50648407880300549487039
:1036F0008120887003210348FFF776FC10BD00008D
:10370000EC020020FC04002010B506484078803010
:10371000054948708320887003210348FFF764FC43
:1037200010BD0000EC020020FC040020012016491E
:103730000860002048604FF4165088600020C86080
:10374000602008610020486101208861C8614FF451
:103750001650086200204862602088620020C8621B
:103760003220086364204863322088636420C86381
:103770003220086464204864322088646420C8646D
:103780000865112048657047B80000200121034AF0
:103790009172FF21024A11757047000068010020F4
:1037A0003001002010B51C4800784006000E1A4970
:1037B00008704FF08070006A8021C26A17489047F5
:1037C00088B115480078401C1349087008460078F5
:1037D00000F00300012806D1114800684EF6602170
:1037E00008440F4988600E4800680D498968401AEE
:1037F000002808DD4FF08070006A00222021036855
:103800000848984707E04FF08070006A2022114670
:1038100003680448984710BD0300002000E00540FD
:103820001001002000C0054010B500240CE004EB9E
:103830008400834951F82000400004EB8401804A51
:1038400042F82100601CC4B2092CF0DB04217D4841
:10385000FDF7DEF9C0F3800079490968084478492A
:10386000086020217848FDF7D3F9C0F3401074496F
:10387000496908447249486110217348FDF7C8F945
:10388000C0F300106E49896A08446D4988621021AE
:103890006E48FDF7BDF9C0F300106949C96B0844D3
:1038A0006749C86320216948FDF7B2F9C0F34010A9
:1038B0006349096D08446249086540216348FDF782
:1038C000A7F9C0F380105E49496E08445C49486618
:1038D00001215C48FDF79CF900F001005849896F0F
:1038E00008445749886702215648FDF791F9C0F30B
:1038F00040005349D1F88C1008445149C1F88C005C
:1039000002215348FDF784F9C0F340004C49D1F837
:10391000A01008444A49C1F8A00000248BE004EB41
:103920008400474911F8200000F0030038B104EB8F
:10393000840011F8200000F00300032814D104EBE8
:1039400084003F4901EB8000007914284FDA04EB32
:10395000840001EB80000079401C04EB8401384AAC
:1039600002EB8101087142E004EB8400344911F854
:10397000200000F0060038B104EB840011F82000AC
:1039800000F0060006281ED1052004EB84012C4A15
:1039900002EB8101087104EB8400114611F820004C
:1039A00000F0010038B92B48006804EB840102EBF9
:1039B0008101886007E02748006804EB8401204A01
:1039C00002EB8101C86004EB84001D4901EB80001B
:1039D000007900280BDD04EB840001EB8000007906
:1039E000401E04EB8401164A02EB8101087104EBCE
:1039F0008400134901EB8000007914280BD104EBFB
:103A0000840051F820100120884304EB84010C4A03
:103A100002EB8101087404EB8400094901EB80008A
:103A2000007930B9052004EB8401054A02EB8101DD
:103A30000871601CC4B2092CFFF671AF10BD000004
:103A400084010020000006400090054000A00540D1
:103A500000D005401001002010B52B480078FF2849
:103A60001FD029484078FF281BD027488078FF289E
:103A700017D02648007C012809D10022114600F009
:103A800005FA00220121022000F000FA09E00022DC
:103A90000121084600F0FAF900221146022000F048
:103AA000F5F91A4890F84C0001280AD10022114675
:103AB000032000F0EBF900220121042000F0E6F9D8
:103AC00009E000220121032000F0E0F90022114664
:103AD000042000F0DBF90C484078FF2813D00A4896
:103AE0008078FF280FD0094890F86000012805D1A0
:103AF00000221146052000F0C9F904E0002201214E
:103B0000052000F0C3F910BD5600002084010020FC
:103B100010B5594800784006000E5749087008460D
:103B200040784006000E4870084680784006000E37
:103B30008870524890F8380001282DD14F4890F8ED
:103B4000240048BB4D4890F86000012824D14B4820
:103B5000016B006A81421FD247480078401C4649E9
:103B600008700846007800F00300012802D144489C
:103B700000F0E4FD4FF47A720121084600F086F966
:103B80004FF47A720121022000F080F94FF47A722A
:103B90000121042000F07AF9384890F8600060BBF9
:103BA000364890F8240040BB344890F8380020BBD9
:103BB0003248C16D006A81421FD22F484078401CB4
:103BC0002D4948700846407800F00300012802D1D2
:103BD0002C4800F0B3FD4FF47A720121084600F042
:103BE00055F94FF47A720121022000F04FF94FF499
:103BF0007A720121052000F049F9204890F8600010
:103C0000C0BB1E4890F82400A0BB1C4890F83800A8
:103C100001282FD11948C16D006A81422AD2174864
:103C2000016B006A814225D213488078401C1249FA
:103C300088700846807800F00300012802D11248FD
:103C400000F07CFD4FF47A720121084600F01EF965
:103C50004FF47A720121022000F018F94FF47A72C1
:103C60000121042000F012F94FF47A72012105209D
:103C700000F00CF910BD0000560000208401002067
:103C800021000020240000202700002010B5064855
:103C900040788030054948708420887003210348AB
:103CA000FFF7A2F910BD0000EC020020FC04002088
:103CB00010B53048807A18B12E48807A022857D142
:103CC0003C214FF04020FCF7A3FF2A490871084629
:103CD0000079897988420FD02748006825490988EA
:103CE000401A244908812448006808600846807901
:103CF000C8720846007988711E4800793C2829D18D
:103D00001C48407B4006000E1A494873084600894B
:103D100028280CDD08460089B0F5FA7F07DA084646
:103D2000C07A08B101208872002012490881114828
:103D3000807A02281CD10F48407B401C0D494873F3
:103D4000002088720846407B00F0030001280FD154
:103D500008730DE00848006806490968401AB0F584
:103D60007A7F05D902200349887208460079C87213
:103D700010BD00006801002010010020FEB50546BE
:103D800000245AE0E3B2E2B2E1B2E0B2009500F002
:103D90006FF92B490860E3B2E2B2E1B2E0B20095FC
:103DA00000F066F9264948602046E11704EB91715E
:103DB0008910A4EB8101224A1172E11704EB917181
:103DC0008910A4EB8101517210468572C5720020E2
:103DD000114608734FF47A70086124E04FF0807048
:103DE000006A202211460368164898471648006862
:103DF00015494968401A052815DD1348006812491D
:103E000048600F48007B0E49C97A0D4A927A0C4EE1
:103E1000CDE900210290737A327A71683068FEF73A
:103E200025FCFCF7EDFD08480068B0F5FA7FD5DB0E
:103E30000020054908604860641CAC42A2DBFEBD5E
:103E40003001002000C00540100100200D4800682E
:103E50000A2190FBF1F00C4908600A4800686421CF
:103E600090FBF1F008494860002008720220487277
:103E70000A208872C872692008734FF47A7008614A
:103E80007047000010010020300100202DE9F041B2
:103E900006460D461446072E78D2DFE806F0A00449
:103EA0001D37516B860044B14F480068B0FBF4F1F8
:103EB00004FB1100B0EB540F01D9012000E00020F9
:103EC0006843C043C7B24FF08070006A3A46012190
:103ED00003684648984783E044B143480068B0FB14
:103EE000F4F104FB1100B0EB540F01D9012000E004
:103EF00000206843C0434006070E4FF08070006A00
:103F00003A46022103683948984769E044B1364887
:103F10000068B0FBF4F104FB1100B0EB540F01D9C1
:103F2000012000E000206843C0438006070E4FF0E8
:103F30008070006A3A46042103682C4898474FE095
:103F400044B129480068B0FBF4F104FB1100B0EB68
:103F5000540F01D9012000E000206843C043C0068F
:103F6000070E4FF08070006A3A46082103681F4828
:103F7000984735E044B11C480068B0FBF4F104FBFD
:103F80001100B0EB540F02D9012001E027E000201E
:103F90006843C0430007070E4FF08070006A3A463E
:103FA00010210368114898471AE044B10E48006890
:103FB000B0FBF4F104FB1100B0EB540F01D9012068
:103FC00000E000206843C0434007070E4FF08070B8
:103FD000006A3A46202103680448984700E000BF81
:103FE00000BFBDE8F08100001001002000E00540A6
:103FF0002DE9F0430146C1F30012C1F34013C1F3B0
:104000008014CD0901F00106C1F34007C1F3800C13
:10401000C1F3C00800204000104440001844400094
:104020002044400000EB050909F0FF004FEA406919
:104030004FEA196000EB060909F0FF004FEA4069FA
:104040004FEA196000EB070909F0FF004FEA4069E9
:104050004FEA196000EB0C0909F0FF004FEA4069D4
:104060004FEA196000EB080909F0FF00BDE8F08392
:1040700070B50546049C04FB04F06043684304FBF0
:1040800004F606FB010004FB0200184470BD0000AA
:104090000EB54FF08071496C086E80479C490860EE
:1040A000FFF744FB00F04AF9FCF7C0FC00F0BEFA51
:1040B000FEF7D0FEFFF7F8F9FFF7C8FE00F016FB99
:1040C00000F028FB00F064FB00F076FB00F0E4FA5F
:1040D000FCF786FCFCF78CFC0A20FFF74FFE00245F
:1040E00005E000208B4951F824100860641C082C5E
:1040F000F7DB0D20FEF75AFD8748006842F6E061C5
:1041000008448549886002E1844800784006000E32
:10411000824908704FF08040FFF7C0FA804908607C
:10412000FFF740FBFFF7C4FDFCF778FDFFF794FCB9
:10413000FFF7EEFCFCF742F9FCF762F976480068FD
:104140007549C969401A002808DD4FF08070006A7F
:104150000122114603687348984715E06E480068CD
:104160004FF4FA7190FBF1F201FB1200FA2801DC26
:10417000012000E0002005464FF08070006A2A46CA
:1041800001210368674898476348006862490969E4
:10419000401A03D16448407D634908735E48006853
:1041A00062494968401A01D1604908705A4800685C
:1041B0005F494968401A0AD15D480078002806DD49
:1041C0005B490878FEF73AFF0020594908705248C9
:1041D00000684FF47A7190FBF1F201FB1200B0F528
:1041E000FA7F0DDD4D480078401C4C4908700846A8
:1041F000007800F0030001280AD1FEF71BFA07E05F
:104200004648007800F00300022801D1FEF720FAAA
:104210004148006840494968401A052813DD3E4876
:1042200000683D4948604048007B3F49C97A3E4AA2
:10423000927A3D4DCDE9002102906B7A2A7A696825
:104240002868FEF713FA34480068374989698842BC
:104250005DDD02203449087248720A208872C872F3
:104260000020087308753348007801282BD13148A5
:104270004078012827D12848006842F2107190FB4D
:10428000F1F201FB12004910884201DC012000E03C
:104290000020294951F83000234908601E48006871
:1042A00042F2107190FBF1F201FB120049108842BA
:1042B00001DC012000E000201F4901EBC000406844
:1042C0001949486023E01B48007858B919484078DC
:1042D000012807D118488068134908601648C0684B
:1042E000486014E01348007801280AD1114840784A
:1042F00038B9114800680C4908600F4840684860A8
:1043000005E00020084908604860FF200873FBE6CC
:1043100034000020084E0000100100203D00002065
:104320003800002000D00540300100201800002097
:104330004C000020540000209C0C002010B5B84810
:10434000FEF734FDFCF74AFAFCF736FB00287DD176
:1043500004220021B348FCF715FBB2480068F72897
:1043600002D8B048006820B9AF4908680021FCF7BE
:1043700029FB04221146AB48001DFCF703FBA948AA
:104380004068F72802D8A748006820B9A6494868BD
:104390000421FCF717FB04220821A2480830FCF78F
:1043A000F1FAA0488068B0F5166F18D09D48806873
:1043B000B0F5965F13D09B488068B0F5165F0ED0BD
:1043C00098488068B0F5615F09D096488068B0F57C
:1043D000964F04D0944988680821FCF7F3FA042228
:1043E0000C2190480C30FCF7CDFA8E48C068401C78
:1043F00020B98D49C8680C21FCF7E4FA0422102189
:1044000088481030FCF7BEFA86480069401C20B985
:10441000854908691021FCF7D5FA04221421814846
:104420001430FCF7AFFA7F484069401C20B97E4940
:1044300048691421FCF7C6FA04221821794818307B
:10444000FCF7A0FA77488069401C00E0E6E020B95C
:10445000754988691821FCF7B5FA04221C217148B6
:104460001C30FCF78FFA6F48C069401C20B96E49B8
:10447000C8691C21FCF7A6FA0422202169482030D3
:10448000FCF780FA6748006A401C20B96649086A50
:104490002021FCF797FA0422242162482430FCF7FB
:1044A00071FA6048406A401C20B95F49486A24217B
:1044B000FCF788FA042228215A482830FCF762FACF
:1044C0005848806A401C20B95749886A2821FCF75F
:1044D00079FA04222C2153482C30FCF753FA514826
:1044E000C06A401C20B95049C86A2C21FCF76AFAFE
:1044F000042230214B483030FCF744FA4948006B25
:10450000401C20B94849086B3021FCF75BFA0422B3
:10451000342144483430FCF735FA4248406B401CA3
:1045200020B94149486B3421FCF74CFA0422382168
:104530003C483830FCF726FA3A48806B401C20B9DA
:104540003949886B3821FCF73DFA04223C21354873
:104550003C30FCF717FA3348C06B401C20B9324995
:10456000C86B3C21FCF72EFA042240212D48403034
:10457000FCF708FA2B48006C401C20B92A49086C4B
:104580004021FCF71FFA0422442126484430FCF75E
:10459000F9F92448406C401C20B92349486C442157
:1045A000FCF710FA042248211E484830FCF7EAF9CB
:1045B0001C48806C401C20B91B49886C4821FCF7C2
:1045C00001FA04224C2117484C30FCF7DBF915485E
:1045D000C06C401C20B91449C86C4C21FCF7F2F99E
:1045E000042250210F485030FCF7CCF90D48006DE3
:1045F000401C20B90C49086D5021FCF7E3F9042256
:10460000542108485430FCF7BDF90648406D401C61
:1046100020B90549486D5421FCF7D4F910BD0000BC
:10462000005800F060000020B800002010B54FF0E6
:104630008070406C8169164888474FF08070C06B6D
:104640002621C26813489047FEF7F2FA4FF47A51D8
:10465000B0FBF1F44FF08070C06B2246FF21836BFA
:104660000C4898474FF08070806C01682320884781
:104670004FF08070C06B0121C26C064890474FF02C
:104680008070C06BFF2142680248904710BD000057
:10469000000400F00000034010B54FF07040FEF73A
:1046A00085FB00BF4FF07040FEF794FB0028F9D067
:1046B0004FF08040FEF7DFFF18B14FF08040FEF76B
:1046C000E7FF4FF08071496C086E80470446214631
:1046D0004FF08040FEF7D5FF4FF08040FEF7D3FF4C
:1046E0004FF08040FEF7BBFF10BD0000002004E04B
:1046F0000021074A1154411CC8B2FF28F8DB0021F1
:10470000034A82F8041182F8051182F806117047F5
:10471000EC020020002004E00021074A1154411C53
:10472000C8B2FF28F8DB0021034A82F8041182F89E
:10473000051182F806117047F403002003498860D0
:104740000021024A5167032111717047AC0C00200F
:10475000002008E00021054A22F810101146C2F896
:10476000C810411CC8B26428F4DB7047D00B00208D
:10477000002008E00021054A42F820101146C2F846
:104780009011411CC8B26428F4DB70470C0700206C
:10479000002004E00021074A1154411CC8B2FF2840
:1047A000F8DB0021034A82F8041182F8051182F82F
:1047B00006117047FC040020002004E00021074A95
:1047C0001154411CC8B2FF28F8DB0021034A82F8CB
:1047D000041182F8051182F80611704704060020C2
:1047E0002DE9F0413D48C0783C49897800EB012033
:1047F00086B23A4840793949097900EB012085B2FF
:10480000082E03DDFEF75CFFBDE8F081C6F109006C
:10481000A84202DAFEF778FFF6E7304840783049E0
:1048200048702846E91705EB5171C1F3C7012C4ABE
:104830009170E91705EB5171C910A5EBC10121B1C8
:1048400010468078401C1146887000243AE0E21738
:1048500004EB5272D210D21C214B9A5C2146E31712
:1048600004EB5373DB10A4EBC3070123BB409A4353
:104870002046E31704EB5373DB10DB1C184FFA548C
:10488000E21704EB5272D210D21C3B469A5CE3173B
:1048900004EB5373DB10A4EBC307A31903EB8303EF
:1048A000DFF840C00CEB83031B7C03F00103BB402B
:1048B0001A43D3B2E21704EB5272D210D21C084F43
:1048C000BB54641CAC42C2DB05488078C01CC1B23A
:1048D0000348FEF789FB00BF96E70000EC020020CA
:1048E000FC040020840100202DE9F0412B48C07811
:1048F0002A49897800EB012085B228484079274968
:10490000097900EB012086B2B5F5805F03DB41F247
:104910000900854203DDFEF7D3FEBDE8F08141F2D8
:104920000A00401BB04202DAFEF7EEFEF5E7FCF7A4
:1049300043F850B9FFF71CFFA5F6F4708700B200EA
:1049400039461748FCF71EF802E0FFF79FF9E4E745
:104950001248407813494870104840794006000ECC
:10496000887000240FE00E4830F82400C0F30721BF
:104970006000C01C0B4A1154094810F82410600054
:10498000001D1154641CB442EDDB06488078C01C45
:10499000C1B20448FEF728FB00BFBEE7EC020020CE
:1049A0000C070020FC04002070B52E48C0782D496B
:1049B000897800EB012085B22A4840792949097994
:1049C00000EB012086B2B5F5005F03DB42F2030085
:1049D000854202DDFEF774FE70BD42F20400401B0A
:1049E000B04202DAFEF790FEF6E71E4840781E4914
:1049F00048707006000E8870FFF7AAFE1B4880887A
:104A000000B21B4908801948008800B24880174846
:104A1000808900B288801548008900B2C8800024CF
:104A200015E06019A0F50050114931F81000C0F3ED
:104A300007216000C01C0C4A11546019A0F50050F9
:104A40000B4911F810106000001D1154641CB44291
:104A5000E7DB05488078C01CC1B20348FEF7C4FA02
:104A600000BFB9E7EC020020FC0400209C0C0020F1
:104A7000D00B002070B5204890F87400002839D180
:104A80001E48C0781D49897800EB012084B21B487C
:104A900040791A49097900EB012085B235B14FF60A
:104AA000FF70854202D0FEF72FFE70BDB4F5405F67
:104AB00003DB43F20600844202DDFEF701FEF4E769
:104AC000E6B20F490D70304600F032F90B484078DD
:104AD0000C4948700948807888700848C078C870C8
:104AE0000648007908710548407948710621054853
:104AF000FEF77AFA00BFD8E784010020EC0200201C
:104B000048000020FC04002070B54848C0784749A0
:104B1000897800EB012085B24448407943490979FE
:104B200000EB012004B2B5F5804F03DB44F207002F
:104B3000854202DDFEF7C4FD70BDA5F57C50F4385A
:104B4000860006F00300002851D1B0100C38082868
:104B50004DD2DFE800F0040E18222C343C4414F54A
:104B6000C87F02DBB4F57A7F02DDFEF7CDFDE3E717
:104B70003EE014F5C87F02DBB4F57A7F02DDFEF774
:104B8000C3FDD9E734E014F5C87F02DBB4F57A7FC2
:104B900002DDFEF7B9FDCFE72AE014F5C87F02DB9E
:104BA000B4F57A7F02DDFEF7AFFDC5E720E0142CF7
:104BB00001DB5A2C02DDFEF7A7FDBDE718E0142C3F
:104BC00001DB5A2C02DDFEF79FFDB5E710E0142C47
:104BD00001DB5A2C02DDFEF797FDADE708E0142C4F
:104BE00001DB5A2C02DDFEF78FFDA5E700E000BFD8
:104BF00000BF31462046FBF7E5FEFFF79FFB0B4861
:104C000040780B4948700948807888700748C07818
:104C1000C870064800790871044840794871062137
:104C20000348FEF7E1F900BF86E70000EC02002030
:104C3000FC04002070B58CB03A48C178807801EB54
:104C4000002085B23749887900EBD0714E10B5F558
:104C5000A04F03DB45F20700854203DDFEF730FD80
:104C60000CB070BD45F20800401BB04202DAFEF7FE
:104C70004BFDF5E7002414E0072000EB4400294930
:104C8000085C002101EB440108AA5054082000EB05
:104C900044002449085C012101EB44015054601C8C
:104CA000C4B2B442E8DBF2B2294608A8FEF796FC8B
:104CB000642831D100240FE0012000EB440008A952
:104CC000095C002000EB440008AA105C01EB002006
:104CD0004DF82400601CC4B2B442EDDBB20005F113
:104CE0000C0081006846FBF79BFD0E4840780E499A
:104CF00048700C48807888700A48C078C8700948A5
:104D000000790871074840794871FFF717FB0621C1
:104D10000548FEF769F902E0FEF7F6FCA0E700BFE0
:104D20009EE70000EC020020FC0400207047000019
:104D300010B50446601C082844D2DFE800F04304A4
:104D40000D161F28313A21480078C043C2B24021D5
:104D50001F48FBF760FF36E01C480078C043C2B232
:104D600020211B48FBF757FF2DE018480078C0436F
:104D7000C2B210211648FBF74EFF24E0134800781A
:104D8000C043C2B208211248FBF745FF1BE00F48A1
:104D90000078C043C2B204210D48FBF73CFF12E08B
:104DA0000A480078C043C2B202210948FBF733FF2A
:104DB00009E006480078C043C2B280210548FBF7ED
:104DC0002AFF00E000BF00BF10BD00004800002027
:104DD00000D0054000C00540807FC242847FC242AF
:104DE000887FC2428C7FC242C0F9A4B0999282F8F7
:104DF00080908883C6A1868EC1CE89CFE3AB8CFF1D
:104E0000C7988187A3BFF1B6807FBE42847FBE4230
:104E1000887FBE428C7FBE42907FBE42947FBE425E
:104E2000987FBE429C7FBE4200D0121300389C1C6B
:104E300040420F0000201C0080841E0000802500DE
:104E4000999E36000040380000093D0000803E0079
:104E500000004B00404B4C0000204E00808D5B005A
:104E600000C05D000080700000127A0000007D002C
:104E700080969800001BB7000080BB00C0E8CE0001
:104E8000647ADA000024F4000000FA0080A812011D
:104E9000002D310100366E0140787D014000000098
:104EA000000000003E00080000000000A00000001C
:104EB0000200000034540100000000002B700600C6
:104EC0000000000028000000000000002700010092
:104ED0000000000020000000000000005000000062
:104EE000020000001AAC0000000000001794090046
:104EF00000000000169805000000000014000000EB
:104F0000000000001380080000000000A000000066
:104F10000800000010000000000000002800000051
:104F200002000000400000000400000060000000DB
:104F3000000000005D000C000000000050000000B8
:104F4000000000004E0002000000000041AC010023
:104F5000000000003C000000000000003A80090052
:104F600000000000300000000000000028000000E9
:104F70000000000027000100000000002360060080
:104F80000000000021600800000000001E0000007A
:104F9000000000001DC004000000000050000000E0
:104FA00002000000180000000000000014000000D3
:104FB0000000000060000000040000000024F40075
:104FC00030003000005A6202910011000087930304
:104FD000D200D20000B4C4041301130100E1F505AE
:104FE00054015401000E2707950195010C50000053
:104FF0000000002060000000A03600006C5000009F
:1050000060000020C80E0000B03600000000000064
:105010000000000000000000000000000000000090
:1050200000000000000000000000000000E9F31E86
:10503000E9F31FE9F31DE9F320F30CE9F30C000099
:1050400000000000000000000D0000000000000053
:105050000000000000000000000000000000000050
:0C50600000000000000000000000000044
:04000005000002896C
:00000001FF
