:020000040000FA
:10000000480F0020890200009102000093020000C6
:100010009502000097020000990200000000000015
:100020000000000000000000000000009B02000033
:100030009D020000000000009F020000852F0000CC
:10004000A3020000A5020000A7020000A902000010
:10005000AB020000DD310000AF020000B102000081
:10006000B3020000B5020000B7020000B9020000B0
:10007000BB020000BD020000BF020000C102000080
:10008000C3020000C5020000DB370000E92F0000BA
:10009000CB020000CD020000CF020000D102000020
:1000A000D3020000D5020000D7020000D9020000F0
:1000B000DB020000DD020000DF020000E1020000C0
:1000C000E3020000E5020000E7020000E902000090
:1000D000EB020000ED020000EF020000F102000060
:1000E000F3020000F502000000000000F70200002B
:1000F000F9020000FB020000FD020000FF02000008
:1001000001030000030300000503000007030000D3
:100110000000000000000000090300000B030000C5
:100120000D0300000F030000110300001303000083
:100130001503000017030000093400001B03000032
:1001400000000000000000000000000000000000AF
:100150001D0300001F030000210300002303000013
:10016000000000000000000000000000000000008F
:10017000000000000000000000000000000000007F
:10018000000000000000000000000000000000006F
:10019000000000000000000000000000000000005F
:1001A000000000000000000000000000000000004F
:1001B0002503000027030000290300002B03000093
:1001C0002D0300002F030000310300003303000063
:1001D0003503000037030000390300003B03000033
:1001E0003D0300003F030000410300000000000049
:1001F0000000000043030000450300004703000027
:10020000490300004B030000000000000000000054
:100210004D0300004F030000510300005303000092
:100220005503000057030000590300005B03000062
:100230005D0300005F030000610300006303000032
:100240006503000067030000690300006B03000002
:100250006D0300006F0300007103000073030000D2
:10026000750300007703000079030000DFF80CD06D
:1002700000F088F80048004761430000480F002064
:100280000138FDD1704700003C4880473C4800479A
:10029000FEE7FEE7FEE7FEE7FEE7FEE7FEE7FEE736
:1002A000FEE7FEE7FEE7FEE7FEE7FEE7FEE7FEE726
:1002B000FEE7FEE7FEE7FEE7FEE7FEE7FEE7FEE716
:1002C000FEE7FEE7FEE7FEE7FEE7FEE7FEE7FEE706
:1002D000FEE7FEE7FEE7FEE7FEE7FEE7FEE7FEE7F6
:1002E000FEE7FEE7FEE7FEE7FEE7FEE7FEE7FEE7E6
:1002F000FEE7FEE7FEE7FEE7FEE7FEE7FEE7FEE7D6
:10030000FEE7FEE7FEE7FEE7FEE7FEE7FEE7FEE7C5
:10031000FEE7FEE7FEE7FEE7FEE7FEE7FEE7FEE7B5
:10032000FEE7FEE7FEE7FEE7FEE7FEE7FEE7FEE7A5
:10033000FEE7FEE7FEE7FEE7FEE7FEE7FEE7FEE795
:10034000FEE7FEE7FEE7FEE7FEE7FEE7FEE7FEE785
:10035000FEE7FEE7FEE7FEE7FEE7FEE7FEE7FEE775
:10036000FEE7FEE7FEE7FEE7FEE7FEE7FEE7FEE765
:10037000FEE7FEE7FEE7FEE7FEE70000A903000058
:100380006D020000064C074D06E0E06840F00103F6
:1003900094E8070098471034AC42F6D3FFF76AFFA1
:1003A000C8520000E852000010B54FF08070406C59
:1003B000C16D0148884710BD403D800710B54FF022
:1003C0008070006A0221C26A0B48904748B94FF01A
:1003D0008070006A8022114603684FF040209847E1
:1003E00008E04FF08070006A0022802103684FF01F
:1003F0004020984710BD000000D005400E4800681E
:100400000D494969401A002803DD00200B49087096
:1004100002E0012009490870074800680649896917
:10042000401A002803DD00200449487002E0012042
:10043000024948707047000020010020640000203D
:1004400010B500240BE004EB8400FE4951F82000B5
:10045000400004EB8401FB4A42F82100641C082C94
:10046000F1DB0221F84800F085FCC0F34000F549BB
:1004700009680844F34908600421F34800F07AFC55
:10048000C0F38000EF4949690844EE4948610821FA
:10049000ED4800F06FFCC0F3C000EA49896A0844E7
:1004A000E84988621021E84800F064FCC0F30010BD
:1004B000E449C96B0844E349C8632021E24800F0DD
:1004C00059FCC0F34010DF49096D0844DD49086557
:1004D0004021DD4800F04EFCC0F38010D949496E40
:1004E0000844D84948668021D74800F043FCC0F34F
:1004F000C010D449896F0844D249886700248AE033
:1005000004EB8400CF4911F8200000F0030038B15B
:1005100004EB840011F8200000F00300032814D13C
:1005200004EB8400C74901EB8000007914284FDAFE
:1005300004EB840001EB80000079401C04EB840193
:10054000C04A02EB8101087142E004EB8400BD491E
:1005500011F8200000F0060038B104EB840011F817
:10056000200000F0060006281ED1052004EB8401BF
:10057000B44A02EB8101087104EB8400114611F8C2
:10058000200000F0010038B9B048006804EB840195
:1005900002EB8101886007E0AC48006804EB84014D
:1005A000A84A02EB8101C86004EB8400A54901EB75
:1005B0008000007900280BDD04EB840001EB800053
:1005C0000079401E04EB84019E4A02EB8101087110
:1005D00004EB84009B4901EB800000790A280BD1D1
:1005E00004EB840051F820100120884304EB8401BF
:1005F000944A02EB8101087404EB8400914901EBF9
:100600008000007930B9052004EB84018D4A02EBAB
:1006100081010871641C072CFFF672AF8C480078CA
:1006200001287DD18B484068B0F5487F09DC8948B6
:10063000006810F5C87F04DB86480068B0F5487F85
:1006400007DD4FF08070006A0022042103687E48B5
:100650009847804840688049496C884205DC7D485D
:1006600000687D49496B88420CDA764890F874003E
:1006700040B94FF08070006A002240210368724840
:10068000984724E0734840687349096C884212DC3B
:10069000704800687049096B88420CDB694890F823
:1006A0007400012807D10006006AFF224021036878
:1006B000654898470BE0634890F87400012806D11C
:1006C0000006006AFF22402103685F48984761489E
:1006D00040686149C96C884205DC5E4800685E4933
:1006E000C96B88420CDD574890F84C0040B94FF078
:1006F0008070006A0022102103685348984737E051
:10070000544840685449896C884214DC5148006858
:100710005149896B88420EDC4A4890F84C0000E051
:1007200016E0012807D10006006AFF2210210368A5
:10073000454898471CE0434890F84C00012817D1E1
:100740000006006AFF22102103683F4898470FE027
:100750004FF08070006A0022102103683A489847E1
:100760004FF08070006AFF224021036836489847A6
:1007700037484078012871D13648C068B0F5487FC5
:1007800009DC3448806810F5C87F04DB3148806894
:10079000B0F5487F07DD4FF08070006A0022042129
:1007A0000368294898472B48C0682B49496C884200
:1007B00005DC284880682849496B88420CDA2148C2
:1007C00090F8600040B94FF08070006A002220214C
:1007D00003681D48984724E01E48C0681E49096CFC
:1007E000884212DC1B4880681B49096B88420CDB7D
:1007F000144890F86000012807D10006006AFF2223
:1008000020210368104898470BE00E4890F86000DC
:10081000012806D10006006AFF22202103680A4849
:1008200098470C48C0680C49C96C884205DC0948E7
:1008300080680949C96B88421ADD024890F838007F
:10084000B0B90CE05402002000D005402001002087
:1008500064000020B80C0020700000202EE04FF053
:100860008070006A0022082103682748984735E015
:100870002648C0682649896C884212DC2348806873
:100880002349896B88420CDC224890F83800012803
:1008900007D10006006AFF22082103681A4898471A
:1008A0001CE01C4890F83800012817D10006006AA7
:1008B000FF2208210368144898470FE04FF080702A
:1008C000006A0022082103680F4898474FF08070A3
:1008D000006AFF22202103680B4898470D4890F8D2
:1008E0008800012807D10006006A0022022103685F
:1008F0000948984707E04FF08070006AFF22022104
:1009000003680548984710BD00D00540B80C00208A
:1009100070000020540200200070004010B502203A
:10092000FFF7AEFC0C4CA06910F0010FFBD1E069A1
:1009300010F00C0F0ED1094802F006FB0220FFF761
:100940009FFCA06910F0010FFBD1E06910F00C00D2
:1009500008BF10BD022010BD00F00A40005800F092
:100960002DE9F05FDFF844810646D8F8180010F052
:10097000010FFAD18809C8F80400C1F38300C8F850
:100980000800DFF82C91DFF82CA195084FF0000B40
:1009900065D0C809012101FA00F0C743DAF8001058
:1009A00045480140A1F18050B0F5A02017D1DAF8F8
:1009B00000000004000C12D10A20FFF761FC0320A4
:1009C000C9F8FC000A20FFF75BFC3C4807600A20DE
:1009D000FFF756FCC9F8FCB00A20FFF751FC30685D
:1009E000C8F814000A20FFF74BFCD8F8184014F0A0
:1009F000010FFAD114F0100F24D0DAF800102E48AD
:100A00000140A1F18050B0F5A02018D1DAF8000023
:100A10000004000C13D10A20FFF732FC0320C9F8B0
:100A2000FC000A20FFF72CFC2548C0F8C0B20A20C1
:100A3000FFF726FCC9F8FCB00A20FFF721FC20468E
:100A4000BDE8F09F361D6D1E09D0D8F808000028BB
:100A5000A4D1D8F80400401CC8F804009EE7DAF8D6
:100A6000001015480140A1F18050B0F5A02018D128
:100A7000DAF800000004000C13D10A20FFF700FC94
:100A80000320C9F8FC000A20FFF7FAFB0C48C0F865
:100A9000C0B20A20FFF7F4FBC9F8FCB00A20FFF748
:100AA000EFFBD8F81800BDE8F09F000000F00A4006
:100AB00000D00F4000E00F400000FF70C0E20A408D
:100AC00000E00A400B4B4FEA911CC3F804C0C1F38D
:100AD00083019960910808BF70475A6940F8042B58
:100AE000491E08BF70479A68002AF6D15A68521CFE
:100AF0005A60F2E700F00A40014880697047000040
:100B000000F00A4038B504460D460094FFF7F4FFA4
:100B100020B9042229466846FFF722FF38BD0000AD
:100B20000248016841F470010160704788ED00E0FF
:100B30000248016841F040410160704734EF00E035
:100B400010B54FF08070406C81697E4888474FF047
:100B50008070406C81697B48401C88474FF08070F2
:100B6000406C81697748801C88474FF08070406CEA
:100B700081697448C01C88474FF08070406C81695F
:100B80007048001D88474FF08070406C81696D4847
:100B9000401D88474FF08070406C81696948801D16
:100BA00088474FF08070406C81696648C01D884757
:100BB0004FF08070406C81696248083088474FF080
:100BC0008070406C81695F48093088475D48401CEF
:100BD00002F09AF95B48801C02F096F95948001D12
:100BE00002F092F95748401D02F08EF95548801DD9
:100BF00002F08AF95348C01D02F086F951480830C6
:100C000002F082F94FF08070006A8021826B4E48BA
:100C100090474FF08070006AFF21C26B4B489047AD
:100C20004FF08070006A7121C26B494890474FF0C5
:100C30008070006A8021826B464890474FF0807038
:100C4000006A3C21826B4FF0402090474248434964
:100C50000860081D006840F00100091D08600020C0
:100C6000091F08604FF08070006A7D21C26B364812
:100C700090474FF08070006AFF227D210368324860
:100C800098474FF08070006A0221C26B3448904749
:100C90004FF08070006AFF220221036830489847B5
:100CA0004FF08070006A0221826B274890474FF016
:100CB0008070006A0721826B2A4890474FF080704D
:100CC000006A3021826B284890474FF08070006A9C
:100CD0007021826B254890474FF08070006A022196
:100CE000826B194890474FF08070006A8021C26B78
:100CF0004FF0402090474FF08070006AFF22802123
:100D000003684FF0402098474FF08070006A7F21C1
:100D1000C26B104890474FF08070006A0221C26B8E
:100D2000134890474FF08070006A02221146036812
:100D30000F4898474FF08070006A0F21C26B0A4835
:100D4000904710BD000800F000D0054000F00540BD
:100D500000C0054000E005404B434F4C20D5054006
:100D600000700040000006400090054000A00540D3
:100D70000010064050F82100704740F821207047CD
:100D8000F8B5F748807A012841F0DD810020F44968
:100D90008872F448006847F230510844F24988618B
:100DA000F04800684EF660210844EE498860EE483D
:100DB000007DFF286FD1EA48C07A1C2806D02C2875
:100DC00017D0342868D0382867D1F1E0E648C07AD7
:100DD0000A280DD1E448007B4010E3490873084617
:100DE000007B08B9082001E0DF48007BDE4908737A
:100DF0003AE1DD48C07A0A286BD1DB4840680A2115
:100E000090FBF1F201FB1200C4B2D748406890FB9E
:100E1000F1F090FBF1F201FB1200C5B2D24840683C
:100E2000642190FBF1F00A2190FBF1F201FB12002A
:100E3000C6B2CD4840684FF47A7190FBF1F00A21B8
:100E400090FBF1F201FB1200C7B2C748007B0128FA
:100E500006D002280DD0042814D0082827D11DE080
:100E6000601EC4B2092C01DD092000E020460446C2
:100E70001EE0681EC5B2092D01DD092000E02846EC
:100E8000054615E0701EC6B2092E01DD092000E0FE
:100E9000304606460CE0E9E01CE0CFE0781EC7B221
:100EA000092F01DD092000E03846074600E000BFB9
:100EB00000BF4FF47A70784306EBC60101EB0611D0
:100EC00000EB810005EB850100EB41002044A649C1
:100ED0004860C9E0A448C07A0A2868D1A24840689E
:100EE0000A2190FBF1F201FB1200C4B29E48406857
:100EF00090FBF1F090FBF1F201FB1200C5B29A48B1
:100F00004068642190FBF1F00A2190FBF1F201FBB3
:100F10001200C6B2944840684FF47A7190FBF1F029
:100F20000A2190FBF1F201FB1200C7B28E48007B50
:100F3000012806D002280DD0042814D0082824D176
:100F40001AE0601CC4B2092C01DD002000E020463C
:100F500004461BE0681CC5B2092D01DD002000E03D
:100F60002846054612E0701CC6B2092E01DD00209D
:100F700000E03046064609E0781CC7B2092F01DDC3
:100F8000002000E03846074600E000BF00BF4FF4F5
:100F90007A70784306EBC60101EB061100EB810085
:100FA00005EB850100EB410020446F4948605BE0A0
:100FB0006D484068B0F57A7F27D101206B490870F1
:100FC000684800686A490844684948606948006898
:100FD000654908606748406848606648007A08725A
:100FE0006448407A48726348807A88726148C07A5F
:100FF000C8726048007B08735E48007D0875012058
:10100000574988723820C87217E05748C07A0A28B2
:101010000ED1202011231A460E210090172003F034
:101020008FF9514948602020C8720F20087304E0EE
:1010300000204B49C87202F057FC15E020200D2318
:101040001A2216210090172003F07AF94649086009
:101050000020486004200872C872202088720A208C
:10106000C8720820087300BF00BFF8BD3C48C07AB2
:101070001C2807D02C2872D034287FD0382841F083
:101080006080F1E33848007D401C37490875084608
:10109000007D152190FBF1F201FB12003249087529
:1010A0000846007D08B9012001E02F48007D2E4947
:1010B00008750846007D401E14286ED2DFE800F057
:1010C0000A21386E97C8F8F6F5F4F3F2F1F0EFEE76
:1010D000EDECEBEA202000230D22114600900A20BF
:1010E00003F02EF920490860234800684860042076
:1010F00008724872202088720A20C8720F20087374
:101100007FE22020002316221C2100900C2003F0F7
:1011100017F91549086018484068486004200872AB
:101120004872202088720A20C8720F20087368E273
:101130002020002314220A2100900B2003F000F944
:10114000094908600C488068B0F5165F17D90A484D
:1011500080680A21B0FBF1F00749886011E052E293
:1011600084010020200100204C01002028000020E4
:10117000E09304006801002070000020EDE3F748D0
:101180008068F749486004200872487220208872FD
:101190000A20C8720F20087333E231E220200023B6
:1011A0000D22122100900C2003F0CAF8EC490860CF
:1011B000EA48C06810B9EB4848600EE0E748C068EC
:1011C000062803D1E848E649486006E0E348C068DD
:1011D000022802D1E548E24948600420E04908724B
:1011E000487220208872C8720F20087309E22020FC
:1011F00000230B220A2100900D2003F0A1F8D8490A
:101200000860D648006930B1202808D040280AD0AC
:10121000602810D10BE00520D14948600CE0062081
:10122000CF49486008E00720CD49486004E0082025
:10123000CB49486000E000BF00BF0420C8490872E5
:101240004872202088720A20C8720F200873D8E1E3
:10125000202000230B221B210090052003F070F8B2
:10126000BF490860BD48406910B90120486006E0E8
:10127000BA484069082802D10220B94948600420D0
:10128000B74908724872202088720A20C8720F205D
:101290000873B6E19CE183E16AE146E12DE114E1E6
:1012A000FBE0E2E0BFE08AE055E02FE017E0FFE777
:1012B000202001230D22114600900A2003F040F85F
:1012C000A7490860A54880694860042008724872F0
:1012D000202088720A20C8720F20087391E1202014
:1012E000012316221C2100900C2003F029F89C49B0
:1012F00008609A48C069486004200872487220203B
:1013000088720A20C8720F2008737AE12020012316
:1013100014220A2100900B2003F012F89049086073
:101320008E48006AB0F5165F07D98C48006A0A211A
:10133000B0FBF1F08949086201E08848006A8849F9
:101340004860042008724872202088720A20C872FF
:101350000F20087355E1202001230D221221009057
:101360000C2002F0EDFF7E4908607C48406A10B90D
:101370007C48486019E07948406A062803D17A48D9
:101380007749486011E07548406A022803D17748E0
:101390007349486009E020201D231A461946009031
:1013A000184602F0CDFF6E49486004206C4908726F
:1013B000487220208872C8720F20087321E1202013
:1013C00001230B220A2100900D2002F0B9FF64498D
:1013D00008606248806A30B1202808D040280AD0CE
:1013E000602810D10BE005205D4948600FE0062021
:1013F0005B4948600BE007205949486007E0082036
:101400005749486003E008205549486000BF00BFC5
:101410000420534908724872202088720A20C8723A
:101420000F200873EDE0202001230B221B210090E8
:10143000052002F085FF4A4908604848C06A10B993
:101440000120486006E04548C06A082802D1022011
:10145000434948600420424908724872202088723B
:101460000A20C8720F200873CBE0202000231A4600
:101470001B2100901A2002F063FF394908603748A9
:10148000006B486004200872022048722020887295
:101490000A20C8720F200873B3E0202000230A221C
:1014A0001B2100901A2002F04BFF2D4908602B48A9
:1014B000406B486004200872022048722020887225
:1014C0000A20C8720F2008739BE0202000231A46D0
:1014D0000F2100901A2002F033FF214908601F48B5
:1014E000806B4860042008720220487220208872B5
:1014F0000A20C8720F20087383E0202000230A22EC
:101500000F2100901A2002F01BFF154908601348B4
:10151000C06B486004200872022048722020887244
:101520000A20C8720F2008736BE0202000231A469F
:101530001B210090052002F003FF094908600748BD
:10154000006C4860042008720220487220208872D3
:101550000A20C8720F20087353E0000070000020BA
:101560004C010020AEF20A00D5510700ADF10B008E
:10157000202000230A221B210090052002F0E0FE1B
:10158000F6490860F648406C486004200872022062
:101590004872202088720A20C8720F20087330E039
:1015A000202000231A460F210090052002F0C8FEDB
:1015B000EA490860EA48806C48600420087202200A
:1015C0004872202088720A20C8720F20087318E021
:1015D000202000230A220F210090052002F0B0FEF7
:1015E000DE490860DE48C06C4860042008720220B2
:1015F0004872202088720A20C8720F20087300E009
:1016000000BF00BFE5E3D548007D401E142875D219
:10161000DFE800F00A2A4CB1F3F11A3B7FCCF0EF7F
:10162000EEEDECEBEAE9E8E7CC484068401ECB4938
:10163000486008464068012801DAF72001E0C74801
:101640004068C6494860CFE1C4484068401EC3496D
:10165000486008464068012801DAF72001E0BF48E9
:101660004068BE494860BFE1BC48406880F0010066
:10167000BA49486008464068012801DD012001E0C0
:10168000B6484068B5494860AEE1B448406880F06B
:101690000100B249486008464068012801DD012088
:1016A00001E0AE484068AD4948609DE1AB48406804
:1016B000B0F5F06F04D14FF4B460A849486027E05A
:1016C000A6484068B0F5B46F04D14FF41650A34952
:1016D00048601DE0A1484068B0F5165F04D14FF4A2
:1016E00096509E49486013E09C484068B0F5965F6C
:1016F00005D14FF416609949486009E073E19748B5
:101700004068B0F5166F03D14FF4F060934948601C
:101710006AE192484068B0F5F06F04D14FF4B460CC
:101720008E49486026E08D484068B0F5B46F04D11A
:101730004FF41650894948601CE088484068B0F56D
:10174000165F04D14FF496508449486012E08348F4
:101750004068B0F5965F04D14FF416607F49486049
:1017600008E07E484068B0F5166F03D14FF4F06092
:101770007A49486038E1794840687A49884203D11B
:1017800079487649486010E0744840687649884254
:1017900003D176487149486007E070484068734952
:1017A000884202D16F486D4948601DE16B4840682E
:1017B0006C49884203D16C486849486010E067482A
:1017C00040686949884203D168486449486007E035
:1017D000624840686549884202D162485F49486072
:1017E00002E1EEE0DBE0C8E0AAE097E084E071E02F
:1017F0005EE04DE01EE03BE0FFE75848406805280A
:1018000011D006280BD0072805D008280FD10720B3
:10181000524948600CE006205049486008E0052025
:101820004E49486004E008204C49486000E000BF91
:1018300000BFD9E049484068052811D006280BD0E0
:10184000072805D0082810D10720444948600DE03A
:1018500006204249486009E005204049486005E00B
:1018600008203E49486001E0B4E200BF00BFBBE091
:101870003A484068401E3949486008464068012897
:1018800001DA022001E03548406834494860ABE0A5
:1018900032484068401E3149486008464068012887
:1018A00001DA022001E02D4840682C4948609BE0A5
:1018B0002A484068401E294948600846406810F59B
:1018C000C87F02DA4FF47A7001E024484068234967
:1018D000486089E021484068401E20494860084629
:1018E000406810F5C87F02DA4FF47A7001E01B48B7
:1018F00040681A49486077E018484068401E174918
:1019000048600846406810F5C87F02DA4FF47A70E4
:1019100001E0124840681149486065E00F4840689E
:10192000401E0E4948600846406810F5C87F02DA3C
:101930004FF47A7001E0094840680849486053E074
:1019400006484068401E054948600846406810F552
:10195000C87F0DDA4FF47A700CE047E04C010020AC
:1019600070000020ADF10B00D5510700AEF20A0067
:10197000F8484068F749486036E0F6484068401E3D
:10198000F44948600846406810F5C87F02DA4FF411
:101990007A7001E0EF484068EE49486024E0ED4885
:1019A0004068401EEB4948600846406810F5C87F13
:1019B00002DA4FF47A7001E0E6484068E549486091
:1019C00012E0E4484068401EE2494860084640682A
:1019D00010F5C87F02DA4FF47A7001E0DD48406804
:1019E000DC49486000E000BF00BFABE3D948007DA0
:1019F000401E142875D2DFE800F00A2A4CB1FBF52E
:101A00001A3B7FD0F4F3F2F1F0EFEEEDECEBD148BE
:101A10004068401CCF49486008464068F72801DD0F
:101A2000012001E0CB484068CA494860D0E1C9487C
:101A30004068401CC749486008464068F72801DDF7
:101A4000012001E0C3484068C2494860C0E1C14884
:101A5000406880F00100BF4948600846406801289E
:101A600001DD012001E0BB484068BA494860AFE1B0
:101A7000B848406880F00100B649486008464068B0
:101A8000012801DD012001E0B2484068B149486009
:101A90009EE1B0484068B0F5166F04D14FF49650FF
:101AA000AC49486027E0AB484068B0F5965F04D188
:101AB0004FF41650A74948601DE0A6484068B0F5AD
:101AC000165F04D14FF4B460A249486013E0A14806
:101AD0004068B0F5B46F05D14FF4F0609D4948609F
:101AE00009E074E19B484068B0F5F06F03D14FF412
:101AF0001660984948606BE196484068B0F5166FEB
:101B000004D14FF496509349486026E091484068CC
:101B1000B0F5965F04D14FF416508E4948601CE032
:101B20008C484068B0F5165F04D14FF4B460894921
:101B3000486012E087484068B0F5B46F04D14FF4B4
:101B4000F0608449486008E082484068B0F5F06F72
:101B500003D14FF416607F49486039E17D48406801
:101B60007D49884203D17D487A49486014E079482C
:101B700040687A49884203D17948764948600BE049
:101B8000744840687649884203D173487149486077
:101B900002E071486F4948601AE16E4840686E493A
:101BA000884203D16D486B49486020E0694840682D
:101BB0006A49884203D16A486649486017E0654827
:101BC0004068674988420FD16348624948600EE027
:101BD000ECE0DAE0C8E0ABE099E087E075E063E0D4
:101BE00052E023E040E003E05B485A494860EFE000
:101BF00058484068052806D0062808D007280AD08B
:101C0000082810D10BE00620524948600CE007205C
:101C10005049486008E008204E49486004E005202B
:101C20004C49486000E000BF00BFD1E0494840682F
:101C3000052806D0062808D007280AD0082810D181
:101C40000BE00620434948600CE00720414948600A
:101C500008E008203F49486004E005203D4948600D
:101C600000E000BF00BFB3E03A484068401C39497B
:101C7000486008464068022801DD012001E035483F
:101C8000406834494860A3E032484068401C31490C
:101C9000486008464068022801DD012001E02D4827
:101CA00040682C49486093E02A484068401C294914
:101CB000486008464068B0F57A7F01DD294801E0B8
:101CC000244840682349486082E022484068401C1C
:101CD0002049486008464068B0F57A7F01DD214818
:101CE00001E01C4840681B49486071E019484068A1
:101CF000401C1849486008464068B0F57A7F01DD0D
:101D0000184801E0134840681249486060E01148F3
:101D10004068401C0F49486008464068B0F57A7F2B
:101D200001DD104801E00B4840680A4948604FE077
:101D300008484068401C0749486008464068B0F5BC
:101D40007A7F01DD074801E00248406801494860A8
:101D50003EE000004C010020AEF20A00D551070021
:101D6000ADF10B0070FEFFFFFE484068401CFD49CE
:101D7000486008464068B0F57A7F01DDFA4801E026
:101D8000F8484068F749486022E0F6484068401C3F
:101D9000F449486008464068B0F57A7F01DDF248B2
:101DA00001E0F0484068EF49486011E0ED484068C4
:101DB000401CEC49486008464068B0F57A7F01DD78
:101DC000E94801E0E7484068E649486000E000BFB4
:101DD00000BFB7E1E348007D00287DDDE3480078DF
:101DE00000BB0020E249C872DE480068E149086093
:101DF000DC4840684860DB48007A0872D948407A7D
:101E00004872D848807A8872D648C07AC872D54855
:101E1000007B0873D348007D0875002001F064FD45
:101E2000FFF723B9CF48007D401E14287ED2DFE89B
:101E300000F00A162298D0EF101C5DB4FDEDECEB1B
:101E4000EAE9E8E7E6E5C74948680021FEF75AFEF7
:101E500063E1C44948681821FEF754FE5DE1C149B9
:101E600048680421FEF74EFE57E1BE4948681C2130
:101E7000FEF748FE51E1BB484068B0F5166F04D14B
:101E8000B84948680821FEF73DFEB6484068B0F5FD
:101E9000965F04D1B34948680821FEF733FEB14884
:101EA0004068B0F5165F04D1AE4948680821FEF7D6
:101EB00029FEAC484068B0F5B46F07D1A94949681C
:101EC00001EB810148000821FEF71CFEA54840688F
:101ED000B0F5F06F09D100E032E1A249496801EBA9
:101EE000810148000821FEF70DFE16E19D4840687B
:101EF000B0F5166F04D19B4948682021FEF702FE19
:101F000098484068B0F5965F04D19649486820210A
:101F1000FEF7F8FD93484068B0F5165F04D191498B
:101F200048682021FEF7EEFD8E4800E0F4E04068AE
:101F3000B0F5B46F07D18B49496801EB81014800C6
:101F40002021FEF7DFFD87484068B0F5F06F07D12C
:101F50008449496801EB810148002021FEF7D2FD48
:101F6000DBE0804840688449884203D10C2100208E
:101F7000FEF7C8FD7B4840688049884203D10C21A8
:101F80000620FEF7BFFD774840687D49884203D1AF
:101F90000C210220FEF7B6FDBFE07248406876498A
:101FA000884203D124210020FEF7ACFD6D48406833
:101FB0007249884203D124210620FEF7A3FD694817
:101FC00040686F49884203D124210220FEF79AFD20
:101FD000A3E064484068052806D0062809D00728F1
:101FE00017D008281FD119E010210020FEF78AFD24
:101FF0001AE010212020FEF785FD15E086E07FE045
:1020000078E071E06AE063E05CE055E042E00DE01A
:102010002EE010214020FEF775FD05E01021602024
:10202000FEF770FD00E000BF00BF76E04D4840685D
:10203000052806D0062809D007280CD0082814D176
:102040000EE028210020FEF75DFD0FE02821202072
:10205000FEF758FD0AE028214020FEF753FD05E079
:1020600028216020FEF74EFD00E000BF00BF54E0D5
:102070003C484068012804D114210020FEF742FDAD
:1020800007E038484068022803D114210820FEF7F1
:1020900039FD42E033484068012804D12C2100205A
:1020A000FEF730FD07E02F484068022803D12C21BD
:1020B0000820FEF727FD30E02A4948683021FEF766
:1020C00021FD2AE0274948683421FEF71BFD24E062
:1020D000244948683821FEF715FD1EE0214948686B
:1020E0003C21FEF70FFD18E01E4948684021FEF72D
:1020F00009FD12E01B4948684421FEF703FD0CE08E
:10210000184948684821FEF7FDFC06E01549486873
:102110004C21FEF7F7FC00E000BF00BF0F20114983
:102120004875F02088750846807D0873154800685A
:1021300000F5FA601349086102F094FA01F078FAA8
:1021400000E000BF00BF0A48807A022871D10D4824
:10215000006847F230510844024988610448C07A57
:102160001C2811E04C01002070FEFFFF2800002019
:102170008401002068010020AEF20A00D55107005A
:10218000ADF10B002001002006D02C2809D0342806
:1021900070D038286FD1B0E2FE480068FE498861EF
:1021A000ADE2FD48007D401E14287DD2DFE800F03E
:1021B0000A7C7C7C7C7C287C7C7C7C7C47698BAB2F
:1021C000CBEBFDFCF3480068F249C968401A32289D
:1021D00008DDF0480068EF49C860EF484068401EDD
:1021E000ED4948600020EC49087308464068012822
:1021F00001DAF72001E0E8484068E749486026E155
:10220000E4480068E349C968401A322808DDE1481B
:102210000068E049C860E0484068401EDE49486008
:102220000020DD49087308464068012802DAF720DB
:1022300002E065E2D8484068D749486007E1D548E0
:102240000068D449C968401A322808DDD1480068BE
:10225000D049C860D0484068401ECF49486000203F
:10226000CD4908730846406810F5C87F04DA4FF47A
:102270007A7003E0EDE041E2C7484068C649486033
:10228000E5E0C4480068C349C968401A322808DD3F
:10229000C0480068BF49C860BF484068401EBE498A
:1022A00048600020BC4900E0D0E008730846406860
:1022B00010F5C87F02DA4FF47A7001E0B648406842
:1022C000B5494860C3E0B3480068B249C968401ADC
:1022D000322808DDAF480068AE49C860AE484068A3
:1022E000401EAD4948600020AB490873084640686D
:1022F00010F5C87F02DA4FF47A7001E0A648406812
:10230000A5494860A3E0A3480068A249C968401AEB
:10231000322808DD9F4800689E49C8609E48406892
:10232000401E9D49486000209B490873084640684C
:1023300010F5C87F02DA4FF47A7001E096484068E1
:102340009549486083E0934800689249C968401AFB
:10235000322808DD8F4800688E49C8608E48406882
:10236000401E8D49486000208B490873084640682C
:1023700010F5C87F02DA4FF47A7001E086484068B1
:102380008549486063E0834800688249C968401A0B
:10239000322808DD7F4800687E49C8607E48406872
:1023A000401E7D49486001E030E00FE000207A499E
:1023B00008730846406810F5C87F02DA4FF47A7057
:1023C00001E0754840687449486040E07148006821
:1023D0007049C968401A322808DD6E4800686D49A6
:1023E000C8606D484068401E6B49486000206A49DB
:1023F00008730846406810F5C87F02DA4FF47A7017
:1024000001E0654840686449486020E06148006830
:102410006049C968401A322808DD5E4800685D4995
:10242000C8605D484068401E5B49486000205A49CA
:1024300008730846406810F5C87F02DA4FF47A70D6
:1024400001E0554840685449486000E000BF00BFC3
:1024500055E15148007D401E14287CD2DFE800F091
:102460000A7B7B7B7B7B287B7B7B7B7B466586AC8F
:10247000CBEAFDFC474800684649C968401A322843
:1024800008DD444800684349C86043484068401C30
:102490004149486000204049087308464068F728D1
:1024A00001DD012001E03C4840683B49486022E1F1
:1024B000384800683749C968401A322808DD35486D
:1024C00000683449C86034484068401C324948605C
:1024D00000203149087308464068F72801DD0120D3
:1024E00001E02D4840682C49486004E12948006813
:1024F0002849C968401A322808DD2648006825495D
:10250000C86025484068401C234948600020224993
:10251000087308464068B0F57A7F01DD1F4801E086
:102520001D4840681C494860E5E01A4800681949A0
:10253000C968401A322808DD164800681549C86085
:1025400015484068401C144948600020124908732F
:102550000846406800E0CDE0B0F57A7F01DD0F4825
:1025600001E00D4840680C494860C4E00948006833
:102570000849C968401A322808DD0648006805493C
:10258000C86005484068401C034948600020024973
:10259000087305E0200100204C01002070FEFFFFC1
:1025A00008464068B0F57A7F01DD604801E0604888
:1025B00040685F4948609EE05E4800685D49C968C0
:1025C000401A322808DD5B4800685A49C8605848FC
:1025D0004068401C56494860002055490873084629
:1025E0004068B0F57A7F01DD504801E0504840680E
:1025F0004F4948607FE04F4800684E49C968401A1B
:10260000322808DD4B4800684A49C860484840689D
:10261000401C474948600020454908730846406807
:10262000B0F57A7F01DD414801E04148406840490A
:10263000486060E03F4800683E49C968401A322857
:1026400008DD3C4800683B49C86039484068401C88
:1026500037494860002001E02DE00DE0344908735F
:1026600008464068B0F57A7F01DD304801E0304827
:1026700040682F4948603EE02E4800682D49C968EF
:10268000401A322808DD2B4800682A49C8602848CB
:102690004068401C264948600020254908730846C8
:1026A0004068B0F57A7F01DD204801E020484068AD
:1026B0001F4948601FE01F4800681E49C968401A4A
:1026C000322808DD1B4800681A49C860184840686D
:1026D000401C1749486000201549087308464068A7
:1026E000B0F57A7F01DD114801E0114840681049DA
:1026F000486000E000BF00BF01E000E000BF00BF95
:102700000D48007B01280DD100200B4908730846B5
:10271000C07A2C2803D00846C07A342802D10F2072
:102720000349087300BFFEF7A0BC000070FEFFFF66
:102730004C010020200100208401002070B50246D9
:102740000B4615464FF6FF700024002112E06E5C28
:10275000704000240BE000F001062EB1C0F34F00E2
:102760004AF20106704001E0C0F34F00641C082CDF
:10277000F1DB491C9942EADB70BD70B5044600F0FC
:1027800011FB604340F6B831B0FBF1F52846FDF788
:1027900077FD70BD70B5044600F004FB604303494B
:1027A000B0FBF1F52846FDF76BFD70BDC0C62D00EE
:1027B0001CB504A103C9CDE900010821684600F059
:1027C0000FFE1CBD0B040000000271611CB504A1CA
:1027D00003C9CDE900010821684600F001FE1CBDD7
:1027E0000C040000000270D62DE9FF4F83B0824632
:1027F0008B46DDE91045BAF1000F73DBBBF1000F2A
:1028000070DB57465E4604FB04F060436043401EA5
:10281000B84206D305FB05F068436843401EB0424A
:1028200002D207B0BDE8F08FFE490878C11700EB6F
:1028300091718910A0EB8101C1B3012921D0022936
:102840000ED003294CD1B7FBF4F004FB107000F05C
:10285000FF09B6FBF5F005FB106000F0FF083FE054
:10286000B7FBF4F0B0FBF4F104FB110000F0FF093A
:10287000B6FBF5F0B0FBF5F105FB110000F0FF0829
:102880002EE0B7FBF4F0B0FBF4F0B0FBF4F104FB86
:10289000110000F0FF09B6FBF5F0B0FBF5F0B0FB5E
:1028A000F5F105FB110000F0FF0819E0FFE7B7FBA9
:1028B000F4F0B0FBF4F0B0FBF4F0B0FBF4F104FB87
:1028C000110000F0FF09B6FBF5F0B0FBF5F0B0FB2E
:1028D000F5F0B0FBF5F105FB110000F0FF0800BFBB
:1028E00037E1FFE7BAF1000F67DABBF1000F64DBF5
:1028F000AAF10107FF435E4604FB04F06043401E5B
:10290000B84206D305FB05F068436843401EB04259
:1029100000D286E7C3490878C11700EB917189108E
:10292000A0EB8101C1B3012921D002290ED00329D6
:1029300042D1B7FBF4F004FB107000F0FF09B6FBC6
:10294000F5F005FB106000F0FF0835E0B7FBF4F090
:10295000B0FBF4F104FB110000F0FF09B6FBF5F049
:10296000B0FBF5F105FB110000F0FF0824E0B7FB18
:10297000F4F0B0FBF4F0B0FBF4F104FB110000F054
:10298000FF09B6FBF5F0B0FBF5F0B0FBF5F105FB88
:10299000110000F0FF080FE0FFE74FF01D09B6FB44
:1029A000F5F0B0FBF5F0B0FBF5F0B0FBF5F105FB91
:1029B000110000F0FF0800BFCBE0BAF1000F67DBA9
:1029C000BBF1000F64DA57465E46761EF64304FB01
:1029D00004F060436043401EB84205D305FB05F098
:1029E0006843401EB04200D21BE78E490878C117E9
:1029F00000EB91718910A0EB8101C1B3012921D0B5
:102A000002290ED0032942D1B7FBF4F004FB107069
:102A100000F0FF09B6FBF5F005FB106000F0FF08C1
:102A200035E0B7FBF4F0B0FBF4F104FB110000F06B
:102A3000FF09B6FBF5F0B0FBF5F105FB110000F066
:102A4000FF0824E0B7FBF4F0B0FBF4F0B0FBF4F1C6
:102A500004FB110000F0FF09B6FBF5F0B0FBF5F048
:102A6000B0FBF5F105FB110000F0FF080FE0FFE7F8
:102A7000B7FBF4F0B0FBF4F0B0FBF4F0B0FBF4F112
:102A800004FB110000F0FF094FF01D0800BF60E0DB
:102A9000BAF1000F5DDABBF1000F5ADA57467F1E1C
:102AA000FF435E46761EF64304FB04F06043401E7F
:102AB000B84205D305FB05F06843401EB04200D282
:102AC000AFE658490878C11700EB91718910A0EB67
:102AD0008101C1B3012921D002290ED0032937D1A8
:102AE000B7FBF4F004FB107000F0FF09B6FBF5F043
:102AF00005FB106000F0FF082AE0B7FBF4F0B0FB24
:102B0000F4F104FB110000F0FF09B6FBF5F0B0FB97
:102B1000F5F105FB110000F0FF0819E0B7FBF4F038
:102B2000B0FBF4F0B0FBF4F104FB110000F0FF097E
:102B3000B6FBF5F0B0FBF5F0B0FBF5F105FB1100CD
:102B400000F0FF0804E0FFE74FF01D09C84600BF92
:102B500000BF344A1178CA1701EB92729210A1EBB0
:102B60008203069A934201D17F2200E0FF222E4B7E
:102B700013F808301A402B4B1878C31700EB9373E7
:102B80009B10A0EB830C059B9C4501D17F2300E0AB
:102B9000FF23DFF894C01CF809C003EA0C0342EAE3
:102BA000032202920298C043029000201F4908604D
:102BB000804619E0029800F4004020B101201B4932
:102BC000091F086003E000201849091F0860002061
:102BD00016491439086001200860029840000290EC
:102BE00008F1010000F0FF08B8F1100FE2DB00224D
:102BF0000C490978C81CC11700EB91718910A0EB32
:102C000081010B4B53F821100A6006490978C81C52
:102C1000C11700EB91718910A0EB8101091D53F8D8
:102C2000211007E000000020C4500000947FB8424B
:102C3000E45000000A603848006838490969B0FB70
:102C4000F1F201FB120035490969B0EB510F19D2BD
:102C50000121334A1078C21700EB92729210A0EB58
:102C6000820253F82220116001222D490878C117F1
:102C700000EB91718910A0EB8101091D53F821101F
:102C80000A6041E02549087B01F01AFB24490978D4
:102C9000CA17019101EB92718A100199A1EB82018F
:102CA000084100F00100C1431D480078C2170090A0
:102CB00000EB927082100098A0EB8200194A52F843
:102CC000200001601549087B01F0FAFA14490978DF
:102CD000CA17019101EB92718A100199A1EB82014F
:102CE000091D084100F00100C1430D480078C217DA
:102CF000009000EB927082100098A0EB8200001D03
:102D0000084A52F82000016005480078401C044938
:102D1000087000BF85E50000200100204C01002064
:102D200000000020E450000070B5044601201C495A
:102D30000860091F0860091F08600720FFF71DFDD4
:102D400001201749083908603C20FFF716FD0020D4
:102D50001349091F08600520FFF70FFD002518E043
:102D600000200F49086004F0010018B10120091D7E
:102D7000086003E000200A49091D08606410C820AB
:102D8000FFF708FD012006490860C820FFF702FD93
:102D90006D1C082DE4DB01200149091F086070BD8E
:102DA000887FB24270B44E4D2B6E296F11F0004FE8
:102DB00014BF01F0700003F03000202808BF49481C
:102DC00018D005DC88B1102808BF474812D009E0A8
:102DD000302808BF47F230500CD0702808BF4FF49D
:102DE000004007D070BC002070477C203F4A00EABA
:102DF000131010584FF0FF3211F0004F02D011F4B1
:102E0000006F06D001F0004C03F400645CEA040C8F
:102E10003BD1D5F860C1D5F8644104F01F06761C9B
:102E2000C4F30424641C16FB04F46400B0FBF4F047
:102E3000CCF309044443CCF3892C00FB0CF0D5F807
:102E400010C004EB902043F480030CF4704CBCF5EC
:102E5000804F08BF264A18D00EDCBCF5805F08BF43
:102E6000244A12D0BCF5005F08BF234A0DD0BCF540
:102E7000405F08BF214A08E0BCF5E04F08BF204A88
:102E800003D0BCF5104F08BF1E4A13F4800F21D0A9
:102E900011F0004F19D011F0804F09D011F4006FDC
:102EA0000CD001F0004C03F400635CEA030305D08E
:102EB000C1F3C551491CB0FBF1F00BE04000C1F378
:102EC0008651491CB0FBF1F004E0C3F3C351491C27
:102ED000B0FBF1F0824238BF104670BC7047000072
:102EE00000E00F4000093D000024F4000C510000F8
:102EF000005A620200B4C404AA40F90380F0FA0246
:102F000040787D01002D31010449CA6E00F00F00A8
:102F1000012303FA00F01043C866704700E00F4039
:102F2000C0F307230749C0B2194401F07043C1F34D
:102F3000130143EA411141EA800040F00070012290
:102F40000260704700E60F40C0F307230C49C0B28F
:102F5000194401F07043C1F3130143EA411141EAFE
:102F6000800040F0007181B001220A6000220092CE
:102F70000098401C00901028FAD30A6001B07047F6
:102F800000E50F4010B504480068401C0249086085
:102F900000F010FD10BD00002001002010B5114808
:102FA00000684FF47A71B0FBF1F44FF08070806BE1
:102FB0004169204688474FF08070806C20218269EB
:102FC0000F2090474FF08071896BC86880474FF0A1
:102FD0008071896B486880474FF08071896C4868C0
:102FE000804710BD4000002010B54FF08070C06BCE
:102FF000012102684B4890474B48007900287DDD4D
:103000004948406F401C20B14748406F401C46492A
:1030100048674548406F80B14348406F401E0A21D1
:10302000B0FBF1F201FB120038B94FF08070006A7A
:103030000222114603683D4898473B48406FC0B1A3
:103040003948406FC01E0A21B0FBF1F201FB1200AB
:1030500078B94FF08070006A00220221036833487B
:1030600098474FF08070006A0022042103682F48BF
:1030700098472D48406F002853D02B48406F0838A0
:103080000A21B0FBF1F201FB1200002849D12648C9
:103090008068047824488068401C2349886008467A
:1030A0000078401C08700020C87031E04FF080703C
:1030B000006A0022042103681C48984704F00100BC
:1030C00040B14FF08070006A08221146036817482B
:1030D000984707E04FF08070006A002208210368DB
:1030E0001248984764101420FFF754FB4FF080708B
:1030F000006A0422114603680C4800E011E098477A
:103100001420FFF747FB0848C078401C0649C870E8
:103110000548C0780828C9DB03480079401E0249E9
:10312000087110BD00000340C80C0020009005404D
:1031300070B505460C460F4800780F4908702146C7
:103140002846FFF7FBFA0C490855601CC4B2611E03
:103150002846FFF7F3FAC0F3072007490855601C1B
:10316000C4B206480470064800680A300349486043
:1031700070BD000008030020180500205C0000203E
:103180002001002070B50546002405E00648015DD9
:10319000064800F047FA641CAC42F7DB0020044903
:1031A00081F8060170BD00001805002000C0004035
:1031B0000803002070B504460D4607E014F8011B13
:1031C0004FF080704069C26B03489047281EA5F1FC
:1031D0000105F3D170BD000000C0004070B57B4810
:1031E00090F8060158B901F0EBFB78480146C1F8A8
:1031F0000001002081F80701FF2081F806014FF04F
:10320000807040690121C26C714890477149086023
:103210004FF080704069026D084601686C48904725
:1032200013E06B4800F0F8F96849D1F80011087014
:103230006648D0F80001401C6449C1F80001084606
:1032400090F80401401C81F804014FF0807040693F
:10325000C16A5F4888470028E3D15C4800785E492E
:103260000968884204D00020584981F8060170BDE1
:103270005648407802280FD05448407803280BD095
:1032800052484078042807D050484078052803D099
:103290004E484078062813D14C4890F8040108287D
:1032A00004D10120494981F8070109E0474890F815
:1032B0000401082804DD0020444981F80601D6E70E
:1032C00042484078102817D1404890F8041180797E
:1032D0000930814204D101203C4981F807010BE00B
:1032E0003A4890F8041180790930814204DD0020C9
:1032F000364981F80601BAE7344890F804011E28DF
:1033000004DD0020314981F80601B0E72F4890F82C
:103310000701012857D12D4C6578204690F804010B
:10332000811E2046FFF70AFAC0B2214691F8041127
:10333000214411F8021C884210D1204690F8040163
:10334000811E2046FFF7FAF9C0F30720214691F8C5
:103350000411214411F8011C884204D000201B49AB
:1033600081F8060183E71D48006800F6B8301B4964
:103370004862052D17D006DC022D0BD0032D0CD092
:10338000042D1CD10CE0062D10D0102D11D0182DBD
:1033900015D111E001F08EFB14E001F00FFC11E0FB
:1033A00001F06CFC0EE001F0CFFC0BE001F016FD2B
:1033B00008E001F0ADFD05E001F026FE02E000F0BE
:1033C00037FA00BF00BF00BF51E70000080300202C
:1033D00000C00040540000207000002020010020A8
:1033E00070B504460D4607E014F8011B4FF08070DD
:1033F0004069C26B03489047281EA5F10105F3D12F
:1034000070BD00000020014010B57E4890F8060114
:1034100058B901F0E9FA7B480146C1F800010020E3
:1034200081F80701FF2081F806014FF080704069A4
:103430000121C26C74489047744908604FF0807055
:103440004069026D084601686F48904713E06E4876
:1034500000F0E2F86B49D1F8001108706948D0F823
:103460000001401C6749C1F80001084690F80401BA
:10347000401C81F804014FF080704069C16A6248C5
:1034800088470028E3D15F4800780B2803D05D48C7
:1034900000780C2807D15B484078042803D15948AC
:1034A0008078042804D00020564981F8060110BD18
:1034B0005448C078FF2810D152480079FF280CD119
:1034C00050484079FF2808D14E488079FF2804D120
:1034D00000204C4981F80601E9E74A4890F80401C8
:1034E000092804D10120474981F8070109E045482E
:1034F00090F80401092804DD0020424981F8060102
:10350000D5E7404890F80701012879D13D4C204685
:1035100090F80401811E2046FFF710F9C0B2214641
:1035200091F80411214411F8021C884210D1204660
:1035300090F80401811E2046FFF700F9C0F3072030
:10354000214691F80411214411F8011C884204D04D
:1035500000202C4981F80601A9E76079C0EB002022
:10356000A17908440A2190FBF1F1264800780B3834
:10357000274A02EBC0004160224800780B2805D1A1
:103580002448006800F6B830224948611D48007898
:103590000C2805D11F48006800F6B8301D49886125
:1035A000E07800F0800010B1802822D10FE021796E
:1035B000E07800F07F0001EB00200A2190FBF1F1A0
:1035C000104800780B38124A42F8301012E0217986
:1035D000E07800F07F0001EB002040420A2190FBE0
:1035E000F1F1084800780B38094A42F8301001E040
:1035F00006E000BF00BF0020024981F8060156E73F
:1036000000BF54E7100400200020014054000020B7
:10361000B80C002020010020816911F0100FFBD1AF
:1036200000687047826912F0200FFBD1016070477B
:1036300070B54FF08070406C81693F4888474FF00B
:103640008070006A816E012088474FF08070006AA8
:10365000816E40F2014088474FF08070006A03217C
:10366000426D4FF040209047FFF79CFB05463348E2
:1036700000693249496908433049C96840EA010391
:103680002E4882684FF080704069294644692C4872
:10369000A0474FF08070806C0168152088474FF07C
:1036A000807040695021426C25489047082125A030
:1036B000FFF780FD4FF08070406C81691E48801DCF
:1036C00088474FF08070006A816E204888474FF02D
:1036D0008070006A816E1E4888474FF08070006AD3
:1036E0003021426D1B489047FFF75CFB05461348AD
:1036F000806A1249C96A08431049496A40EA0103CD
:103700000E48026A4FF080704069294644691248A9
:10371000A0474FF08070806C01684E2088474FF0C2
:10372000807040695021426C0B48904708210BA0E3
:10373000FFF740FD70BD0000001800F07000002091
:1037400000C0004030736375737300000110030004
:1037500001140300007000400020014036736375BF
:1037600073730000F0B503460C461546002130E0A7
:10377000012000EB41001F5C002000EB4100185CC1
:1037800007EB002002B26618A6F5A04008281CD25C
:10379000DFE800F0040506071011121300BF00BF98
:1037A00000BF12F5C87F02DBB2F57A7F01DD084663
:1037B000F0BD0CE000BF00BF00BF002A02DBB2F585
:1037C0007A7F01DD0846F3E701E06420F0E700BFFF
:1037D000491CA942CCDB6420EAE710B54FF08040D9
:1037E00000F001F810BD0121C160704702E008C877
:1037F000121F08C1002AFAD170477047002001E06B
:1038000001C1121F002AFBD17047000010B5064805
:103810004078803005494870822088700321034831
:10382000FFF786FC10BD00000803002018050020EB
:1038300010B506484078803005494870812088706E
:1038400003210348FFF774FC10BD000008030020AB
:103850001805002010B506484078803005494870AA
:103860008320887003210348FFF762FC10BD00002D
:10387000080300201805002001201A4908600020D4
:1038800048604FF4165088600020C86060200861CE
:103890000020486101208861C8614FF41650086219
:1038A00000204862602088620020C8624FF4FA70ED
:1038B0000863642048634FF4967088634FF448703F
:1038C000C8634FF4967008644FF42F7048644FF447
:1038D000967088644FF42F70C864642008651120C6
:1038E00048657047C80000200121034A9172FF21FA
:1038F000024A117570470000840100204C0100202D
:1039000010B5254800784006000E234908704FF096
:103910008070006A8021C26A20489047E8B11E4842
:103920000078401C1C4908700846007800F003002D
:10393000012812D11A4800684EF66021084418493F
:10394000886018480068012807D1174890F8780067
:10395000012802D1154801F05BF8114800681049B0
:103960008968401A00280BDD4FF08070006A002241
:10397000202103680E48984701200A4908600AE0A0
:103980004FF08070006A202211460368084898476B
:1039900000200449086010BD1000002000E0054030
:1039A000200100200C000020C80C00200400002092
:1039B00000C0054010B500240CE004EB84008B49E6
:1039C00051F82000400004EB8401884A42F82100AD
:1039D000601CC4B2092CF0DB04218548FDF7CAF94C
:1039E000C0F38000814909680844804908602021AB
:1039F0008048FDF7BFF9C0F340107C49496908448D
:103A00007A49486110217B48FDF7B4F9C0F30010F2
:103A10007649896A08447549886210217648FDF71D
:103A2000A9F9C0F300107149C96B08446F49C86314
:103A300020217148FDF79EF9C0F340106B49096DD4
:103A400008446A49086540216B48FDF793F9C0F3C3
:103A500080106649496E08446449486601216448FB
:103A6000FDF788F900F001006049896F08445F495B
:103A7000886702215E48FDF77DF9C0F340005B498D
:103A8000D1F88C1008445949C1F88C0002215B48D8
:103A9000FDF770F9C0F340005449D1F8A010084474
:103AA0005249C1F8A00000249BE004EB84004F4978
:103AB00011F8200000F0030038B104EB840011F885
:103AC000200000F00300032814D104EB84004749D0
:103AD00001EB8000007914284FDA04EB840001EB3D
:103AE00080000079401C04EB8401404A02EB810114
:103AF000087142E004EB84003C4911F8200000F01A
:103B0000060038B104EB840011F8200000F0060034
:103B100006281ED1052004EB8401344A02EB810102
:103B2000087104EB8400114611F8200000F0010038
:103B300038B93348006804EB840102EB81018860E6
:103B400007E02F48006804EB8401284A02EB81015A
:103B5000C86004EB8400254901EB8000007900284F
:103B60000BDD04EB840001EB80000079401E04EBC8
:103B700084011E4A02EB8101087104EB84001B4999
:103B800001EB8000007914281BD1042C0CD004EB2D
:103B9000840051F820100120884304EB8401134A6B
:103BA00002EB810108740CE004EB84000F4911F86A
:103BB000200000F0010004EB84010C4A02EB8101BB
:103BC000087404EB8400094901EB8000007930B9E6
:103BD000052004EB8401054A02EB81010871601C99
:103BE000C4B2092CFFF661AF10BD0000A001002097
:103BF000000006400090054000A0054000D00540B0
:103C00002001002010B543480078FF2837D04148F4
:103C10004078FF2833D03F488078FF282FD03E4897
:103C2000007C01280ED13C4890F8240050B90022B5
:103C30001146012000F092FA00220121022000F03A
:103C40008DFA1CE03448007C78B9334890F82400A1
:103C500001280AD100220121084600F07FFA002243
:103C60001146022000F07AFA09E0002211460120F4
:103C700000F074FA00221146022000F06FFA264884
:103C800090F8380078B9244890F84C0001280AD1FF
:103C900000221146032000F061FA002201210420D5
:103CA00000F05CFA1DE01C4890F8380001280ED1A5
:103CB000194890F84C0050B900220121032000F06F
:103CC0004DFA00221146042000F048FA09E00022D3
:103CD0001146032000F042FA00221146042000F0B1
:103CE0003DFA0C484078FF2813D00A488078FF2816
:103CF0000FD0094890F86000012805D10022114634
:103D0000052000F02BFA04E000220121052000F03C
:103D100025FA10BD68000020A001002010B58748DA
:103D200000784006000E8549087008464078400635
:103D3000000E4870084680784006000E8870804863
:103D400000784006000E7E4908707E4890F83800E2
:103D500001281FD17B4890F82400D8B9794890F801
:103D60006000012816D17748016B006A814211D9A1
:103D700072480078401C714908700846007800F0CD
:103D80000300012806D1704800F042FE01206F496F
:103D900081F878006B4890F8380001284FD16948C5
:103DA000007C01284BD1674890F86000012846D17B
:103DB00064488168006B814224D960480078401CC7
:103DC0005E4908700846007800F00300012806D11B
:103DD0005F4800F01DFE00205C4981F878004FF438
:103DE0007A720121084600F0B9F94FF47A72012184
:103DF000022000F0B3F94FF47A720121042000F0A0
:103E0000ADF91CE04F488068C8B94E48006BB0B9A6
:103E10004B480078401C4A490870084600787F28C3
:103E20000DDA0120494981F878004A48006800F518
:103E3000FA60484988620120444981F87900414884
:103E400090F8380018B90020404981F878003D48C2
:103E500090F8600080BB3B4890F8240060BB394874
:103E600090F8380040BB3748C16D006A814223D2C8
:103E700032484078401C314948700846407800F08C
:103E80000300012806D1344800F0C2FD00202F496C
:103E900081F878004FF47A720121084600F05EF94B
:103EA0004FF47A720121022000F058F94FF47A722F
:103EB0000121052000F052F9224890F86000E0BB93
:103EC000204890F82400C0BB1E4890F83800012814
:103ED00033D11C48C16D006A81422ED21948016B52
:103EE000006A814229D215488078401C13498870A5
:103EF0000846807800F00300012806D1174800F03A
:103F000087FD0020114981F878004FF47A72012171
:103F1000084600F023F94FF47A720121022000F0E4
:103F20001DF94FF47A720121042000F017F94FF4C3
:103F30007A720121052000F011F910BD68000020FF
:103F400025000020A00100203A000020C80C00201D
:103F50003100002020010020340000203700002024
:103F600010B5064840788030054948708420887034
:103F700003210348FFF7DCF810BD00000803002010
:103F80001805002010B53048807A18B12E48807A84
:103F9000022857D13C214FF04020FCF7EBFE2A4984
:103FA000087108460079897988420FD0274800684F
:103FB00025490988401A2449088124480068086076
:103FC00008468079C8720846007988711E480079D1
:103FD0003C2829D11C48407B4006000E1A494873F2
:103FE0000846008928280CDD08460089B0F5FA7FCC
:103FF00007DA0846C07A08B1012088720020124909
:1040000008811148807A02281CD10F48407B401C4F
:104010000D494873002088720846407B00F0030079
:1040200001280FD108730DE00848006806490968A7
:10403000401AB0F57A7F05D90220034988720846F4
:104040000079C87210BD000084010020200100200A
:10405000FEB50546002458E0E3B2E2B2E1B2E0B2B8
:10406000009500F06DF92A490860E3B2E2B2E1B2CE
:10407000E0B2009500F064F9254948602046E11758
:1040800004EB91718910A4EB8101214A1172E117AF
:1040900004EB91718910A4EB810151721046857275
:1040A000C5720020114608734FF47A70086122E04F
:1040B0004FF08070006A2022114603681548984727
:1040C0001548006814494968401A052813DD12484C
:1040D0000068114948600E48007B0D49C97A0C4AB6
:1040E000927A0B4ECDE900210290737A327A716890
:1040F0003068FEF779FB08480068B0F5FA7FD7DB37
:104100000020054908604860641CAC42A4DBFEBD89
:104110004C01002000C00540200100200D4800682F
:104120000A2190FBF1F00C4908600A4800686421FC
:1041300090FBF1F0084948600020087202204872A4
:104140000A208872C872692008734FF47A70086177
:1041500070470000200100204C0100202DE9F041B3
:1041600006460D461446072E78D2DFE806F0A00476
:104170001D37516B860044B14F480068B0FBF4F125
:1041800004FB1100B0EB540F01D9012000E0002026
:104190006843C043C7B24FF08070006A3A460121BD
:1041A00003684648984783E044B143480068B0FB41
:1041B000F4F104FB1100B0EB540F01D9012000E031
:1041C00000206843C0434006070E4FF08070006A2D
:1041D0003A46022103683948984769E044B13648B5
:1041E0000068B0FBF4F104FB1100B0EB540F01D9EF
:1041F000012000E000206843C0438006070E4FF016
:104200008070006A3A46042103682C4898474FE0C2
:1042100044B129480068B0FBF4F104FB1100B0EB95
:10422000540F01D9012000E000206843C043C006BC
:10423000070E4FF08070006A3A46082103681F4855
:10424000984735E044B11C480068B0FBF4F104FB2A
:104250001100B0EB540F02D9012001E027E000204B
:104260006843C0430007070E4FF08070006A3A466B
:1042700010210368114898471AE044B10E480068BD
:10428000B0FBF4F104FB1100B0EB540F01D9012095
:1042900000E000206843C0434007070E4FF08070E5
:1042A000006A3A46202103680448984700E000BFAE
:1042B00000BFBDE8F08100002001002000E00540C3
:1042C0002DE9F0430146C1F30012C1F34013C1F3DD
:1042D0008014CD0901F00106C1F34007C1F3800C41
:1042E000C1F3C008002040001044400018444000C2
:1042F0002044400000EB050909F0FF004FEA406947
:104300004FEA196000EB060909F0FF004FEA406927
:104310004FEA196000EB070909F0FF004FEA406916
:104320004FEA196000EB0C0909F0FF004FEA406901
:104330004FEA196000EB080909F0FF00BDE8F083BF
:1043400070B50546049C04FB04F06043684304FB1D
:1043500004F606FB010004FB0200184470BD0000D7
:104360000EB54FF08071496C086E8047B049086007
:10437000FFF782FA00F076F9FCF7E2FB00F0EAFAC8
:10438000FEF70CFEFFF754F9FFF7C8FE00F018FB2C
:1043900000F02AFB00F066FB00F078FBFCF7C0FBA6
:1043A000FCF7C6FB0A20FFF753FE002405E00020BF
:1043B000A04951F824100860641C082CF7DB0D207C
:1043C000FEF7B2FC9C48006842F6E06108449A4956
:1043D00088602CE1994800784006000E97490870E3
:1043E000FBF7ECFF944800689349896A401A00285B
:1043F0000BDD934890F87900012806D10020904900
:1044000081F879008F4800F003FB8B4800684FF477
:104410007A7190FBF1F201FB1200B0F5FA7F0DDD2D
:1044200086480078401C854908700846007800F0EE
:10443000030001280AD1FEF7BBF907E07F480078A6
:1044400000F00300022801D1FEF7C0F9FFF758FA87
:10445000FFF798FDFCF794FCFFF7D4FBFFF75EFC39
:10446000FBF7EEFF744800687349496A401A002858
:1044700008DD4FF08070006A01221146036872481F
:10448000984715E06C4800684FF4FA7190FBF1F220
:1044900001FB1200FA2801DC012000E000200646A2
:1044A0004FF08070006A32460121036866489847E1
:1044B0006148006860490969401A03D16348407D3A
:1044C000624908735C48006861494968401A01D133
:1044D0005F490870584800685E494968401A0AD127
:1044E0005C480078002806DD5A490878FEF74AFE45
:1044F000002058490870504800684F494968401AE0
:10450000052813DD4C4800684B4948604F48007B44
:104510004E49C97A4D4A927A4C4ECDE9002102901B
:10452000737A327A71683068FEF75EF94248006843
:1045300046498969884278DD0220444908724872F8
:104540000A208872C87200200873087542480078F3
:10455000012832D14048407801282ED136480068E1
:1045600042F2107190FBF1F201FB120049108842F7
:1045700001DC012000E00020384951F830003349C7
:1045800008602D48006842F2107190FBF1F201FBC7
:1045900012004910884201DC012000E000202F4970
:1045A00001EBC00040682949486000202C49087090
:1045B0000425284600F02AFD37E02748007890B906
:1045C0002548407801280ED1244880681F4908609A
:1045D0002248C0684860FF20214908700425284609
:1045E00000F014FD21E01C480078012811D11A4880
:1045F000407870B919480068144908601748406845
:104600004860FF20164908700425284600F0FEFC8B
:104610000BE000200D4908604860FF200873104936
:1046200008700425284600F0F1FCFBF7E7FED1E610
:1046300040000020E450000020010020490000203C
:10464000C80C00205000002000D005404C01002084
:10465000280000205C00002064000020B80C00202E
:104660005800002010B5B848FEF75AFCFCF756F980
:10467000FCF742FA00287DD104220021B348FCF760
:1046800021FAB2480068F72802D8B048006820B97B
:10469000AF4908680021FCF735FA04221146AB48FF
:1046A000001DFCF70FFAA9484068F72802D8A74870
:1046B000006820B9A64948680421FCF723FA0422BF
:1046C0000821A2480830FCF7FDF9A0488068B0F541
:1046D000166F18D09D488068B0F5965F13D09B4840
:1046E0008068B0F5165F0ED098488068B0F5615FBD
:1046F00009D096488068B0F5964F04D094498868F0
:104700000821FCF7FFF904220C2190480C30FCF73B
:10471000D9F98E48C068401C20B98D49C8680C2161
:10472000FCF7F0F90422102188481030FCF7CAF990
:1047300086480069401C20B9854908691021FCF7AA
:10474000E1F90422142181481430FCF7BBF97F48B9
:104750004069401C20B97E4948691421FCF7D2F910
:104760000422182179481830FCF7ACF977488069A1
:10477000401C00E0E6E020B9754988691821FCF783
:10478000C1F904221C2171481C30FCF79BF96F48C9
:10479000C069401C20B96E49C8691C21FCF7B2F9F8
:1047A0000422202169482030FCF78CF96748006A10
:1047B000401C20B96649086A2021FCF7A3F90422AD
:1047C000242162482430FCF77DF96048406A401C8F
:1047D00020B95F49486A2421FCF794F90422282172
:1047E0005A482830FCF76EF95848806A401C20B9B6
:1047F0005749886A2821FCF785F904222C2153485F
:104800002C30FCF75FF95148C06A401C20B9504970
:10481000C86A2C21FCF776F9042230214B4830304D
:10482000FCF750F94948006B401C20B94849086B17
:104830003021FCF767F90422342144483430FCF776
:1048400041F94248406B401C20B94149486B342132
:10485000FCF758F9042238213C483830FCF732F98B
:104860003A48806B401C20B93949886B3821FCF7E5
:1048700049F904223C2135483C30FCF723F9334800
:10488000C06B401C20B93249C86B3C21FCF73AF997
:10489000042240212D484030FCF714F92B48006CCD
:1048A000401C20B92A49086C4021FCF72BF904224E
:1048B000442126484430FCF705F92448406C401C4C
:1048C00020B92349486C4421FCF71CF904224821F3
:1048D0001E484830FCF7F6F81C48806C401C20B994
:1048E0001B49886C4821FCF70DF904224C2117481C
:1048F0004C30FCF7E7F81548C06C401C20B914494F
:10490000C86C4C21FCF7FEF8042250210F485030AF
:10491000FCF7D8F80D48006D401C20B90C49086D13
:104920005021FCF7EFF80422542108485430FCF7DA
:10493000C9F80648406D401C20B90549486D54210E
:10494000FCF7E0F810BD0000005800F070000020F7
:10495000C800002010B54FF08070406C8169164887
:1049600088474FF08070C06B2621C268134890477B
:10497000FEF718FA4FF47A51B0FBF1F44FF0807063
:10498000C06B2246FF21836B0C4898474FF0807024
:10499000806C0168232088474FF08070C06B012134
:1049A000C26C064890474FF08070C06BFF21426890
:1049B0000248904710BD0000000400F000000340D2
:1049C000002004E00021074A1154411CC8B2FF280E
:1049D000F8DB0021034A82F8041182F8051182F8FD
:1049E0000611704708030020002004E0FF21074A59
:1049F0001154411CC8B20928F8DB0021034A82F88F
:104A0000041182F8051182F8061170471004002085
:104A1000034988600021024A5167032111717047E0
:104A2000C80C0020002008E00021054A22F81010E0
:104A30001146C2F8C810411CC8B26428F4DB7047A4
:104A4000EC0B0020002008E00021054A42F820106D
:104A50001146C2F89011411CC8B26428F4DB7047BB
:104A600028070020002004E00021074A1154411CBF
:104A7000C8B2FF28F8DB0021034A82F8041182F84B
:104A8000051182F80611704718050020002004E087
:104A90000021074A1154411CC8B20928F8DB002143
:104AA000034A82F8041182F8051182F80611704752
:104AB000200600202DE9F0413D48C0783C49897826
:104AC00000EB012086B23A4840793949097900EB78
:104AD000012085B2082E03DDFEF798FEBDE8F081C7
:104AE000C6F10900A84202DAFEF7B4FEF6E7304844
:104AF0004078304948702846E91705EB5171C1F3F9
:104B0000C7012C4A9170E91705EB5171C910A5EB4B
:104B1000C10121B110468078401C114688700024E4
:104B20003AE0E21704EB5272D210D21C214B9A5C8D
:104B30002146E31704EB5373DB10A4EBC3070123F7
:104B4000BB409A432046E31704EB5373DB10DB1C96
:104B5000184FFA54E21704EB5272D210D21C3B46A3
:104B60009A5CE31704EB5373DB10A4EBC307A319A0
:104B700003EB8303DFF840C00CEB83031B7C03F0E3
:104B80000103BB401A43D3B2E21704EB5272D210B6
:104B9000D21C084FBB54641CAC42C2DB0548807871
:104BA000C01CC1B20348FEF7C3FA00BF96E700007D
:104BB0000803002018050020A00100202DE9F04185
:104BC0002B48C0782A49897800EB012085B2284813
:104BD00040792749097900EB012086B2B5F5805F5D
:104BE00003DB41F20900854203DDFEF70FFEBDE85D
:104BF000F08141F20A00401BB04202DAFEF72AFEC1
:104C0000F5E7FBF779FF50B9FFF71CFFA5F6F47045
:104C10008700B20039461748FBF754FF02E0FFF760
:104C20009FF9E4E7124840781349487010484079EA
:104C30004006000E887000240FE00E4830F8240073
:104C4000C0F307216000C01C0B4A1154094810F83A
:104C500024106000001D1154641CB442EDDB0648B2
:104C60008078C01CC1B20448FEF762FA00BFBEE7FC
:104C700008030020280700201805002070B52E48E2
:104C8000C0782D49897800EB012085B22A48407907
:104C90002949097900EB012086B2B5F5005F03DBF5
:104CA00042F20300854202DDFEF7B0FD70BD42F224
:104CB0000400401BB04202DAFEF7CCFDF6E71E48C6
:104CC00040781E4948707006000E8870FFF7AAFEF3
:104CD0001B48808800B21B4908801948008800B230
:104CE00048801748808900B288801548008900B242
:104CF000C880002415E06019A0F50050114931F872
:104D00001000C0F307216000C01C0C4A1154601948
:104D1000A0F500500B4911F810106000001D11544F
:104D2000641CB442E7DB05488078C01CC1B203486C
:104D3000FEF7FEF900BFB9E70803002018050020C0
:104D4000B80C0020EC0B002070B5204890F87400DF
:104D5000002839D11E48C0781D49897800EB012010
:104D600084B21B4840791A49097900EB012085B2C9
:104D700035B14FF6FF70854202D0FEF76BFD70BD76
:104D8000B4F5405F03DB43F20600844202DDFEF728
:104D90003DFDF4E7E6B20F490D70304600F036F9FC
:104DA0000B4840780C49487009488078887008485A
:104DB000C078C87006480079087105484079487184
:104DC00006210548FEF7B4F900BFD8E7A00100208E
:104DD00008030020580000201805002070B54A483C
:104DE000C0784949897800EB012085B2464840796E
:104DF0004549097900EB012004B2B5F5804F03DB8A
:104E000044F20700854202DDFEF700FD70BDA5F506
:104E10007C50F438860006F00300002855D1B0100D
:104E20000C38082851D2DFE800F0040E18222C3587
:104E30003E4714F5C87F02DBB4F57A7F02DDFEF74A
:104E400009FDE3E742E014F5C87F02DBB4F57A7FA1
:104E500002DDFEF7FFFCD9E738E014F5C87F02DB7E
:104E6000B4F57A7F02DDFEF7F5FCCFE72EE014F50E
:104E7000C87F02DBB4F57A7F02DDFEF7EBFCC5E705
:104E800024E0C82C02DBB4F5617F02DDFEF7E2FC12
:104E9000BCE71BE0C82C02DBB4F5617F02DDFEF746
:104EA000D9FCB3E712E0C82C02DBB4F5617F02DD68
:104EB000FEF7D0FCAAE709E0C82C02DBB4F5617F5D
:104EC00002DDFEF7C7FCA1E700E000BF00BF3146EE
:104ED0002046FBF717FEFFF7C5FB0B4840780B4950
:104EE00048700948807888700748C078C8700648BC
:104EF0000079087104484079487106210348FEF79B
:104F000017F900BF82E70000080300201805002001
:104F100070B58CB03A48C178807801EB002085B23A
:104F20003749887900EBD0714E10B5F5A04F03DBFF
:104F300045F20700854203DDFEF768FC0CB070BD4A
:104F400045F20800401BB04202DAFEF783FCF5E7A9
:104F5000002414E0072000EB44002949085C0021EC
:104F600001EB440108AA5054082000EB44002449F6
:104F7000085C012101EB44015054601CC4B2B442EE
:104F8000E8DBF2B2294608A8FEF7ECFB642831D131
:104F900000240FE0012000EB440008A9095C002078
:104FA00000EB440008AA105C01EB00204DF824003F
:104FB000601CC4B2B442EDDBB20005F10C0081000C
:104FC0006846FBF7CDFC0E4840780E4948700C4807
:104FD000807888700A48C078C870094800790871DC
:104FE000074840794871FFF73DFB06210548FEF769
:104FF0009FF802E0FEF72EFCA0E700BF9EE700004E
:1050000008030020180500207047000010B5044672
:10501000601C082844D2DFE800F043040D161F2866
:10502000313A21480078C043C2B240211F48FBF703
:10503000A4FE36E01C480078C043C2B220211B48C1
:10504000FBF79BFE2DE018480078C043C2B2102148
:105050001648FBF792FE24E013480078C043C2B222
:1050600008211248FBF789FE1BE00F480078C04377
:10507000C2B204210D48FBF780FE12E00A48007816
:10508000C043C2B202210948FBF777FE09E0064897
:105090000078C043C2B280210548FBF76EFE00E0F5
:1050A00000BF00BF10BD00005800002000D0054028
:1050B00000C00540807FC242847FC242887FC242D6
:1050C0008C7FC242C0F9A4B0999282F88090888304
:1050D000C6A1868EC1CE89CFE3AB8CFFC7988187EE
:1050E000A3BFF1B6807FBE42847FBE42887FBE42AE
:1050F0008C7FBE42907FBE42947FBE42987FBE426C
:105100009C7FBE4200D0121300389C1C40420F000E
:1051100000201C0080841E0000802500999E36001F
:105120000040380000093D0000803E0000004B00B8
:10513000404B4C0000204E00808D5B0000C05D00A5
:105140000080700000127A0000007D0080969800B8
:10515000001BB7000080BB00C0E8CE00647ADA0014
:105160000024F4000000FA0080A81201002D310193
:1051700000366E0140787D01400000000000000014
:105180003E00080000000000A00000000200000037
:1051900034540100000000002B70060000000000E5
:1051A00028000000000000002700010000000000AF
:1051B000200000000000000050000000020000007D
:1051C0001AAC000000000000179409000000000065
:1051D0001698050000000000140000000000000008
:1051E0001380080000000000A0000000080000007C
:1051F0001000000000000000280000000200000075
:1052000040000000040000006000000000000000FA
:105210005D000C00000000005000000000000000D5
:105220004E0002000000000041AC01000000000040
:105230003C000000000000003A800900000000006F
:105240003000000000000000280000000000000006
:10525000270001000000000023600600000000009D
:1052600021600800000000001E0000000000000097
:105270001DC00400000000005000000002000000FB
:1052800018000000000000001400000000000000F2
:1052900060000000040000000024F4003000300032
:1052A000005A62029100110000879303D200D200DD
:1052B00000B4C4041301130100E1F50554015401C5
:1052C000000E270795019501E8520000000000201C
:1052D00070000000EC370000585300007000002000
:1052E000D80E0000FC37000000000000E9F30C00BD
:1052F00000000000000000000000000000000000AE
:10530000000000000000000000000000000000009D
:10531000000000000000000000E9F31EE9F31FE9AF
:10532000F31DE9F30CE9F30C00000000000000009D
:105330000D00000000000000E9F30C000000000078
:10534000000000000000000000000000000000005D
:08535000000000000000000055
:04000005000002896C
:00000001FF
