:020000040000FA
:10000000F01B002091030000810200008302000029
:100010008502000087020000890200000000000045
:100020000000000000000000000000008B02000043
:100030008D020000000000008F020000DD2400009F
:100040009302000095020000970200009902000050
:100050009B0200009D02000035280000A102000064
:10006000A3020000A5020000A7020000A9020000F0
:10007000AB020000AD020000C50300001D08000037
:10008000790C0000B50200000D2C000031250000A5
:10009000BB020000BD020000BF020000C102000060
:1000A000C3020000C5020000C7020000C902000030
:1000B000CB020000CD020000CF020000D102000000
:1000C000D3020000D5020000D7020000D9020000D0
:1000D000DB020000DD020000DF020000991B0000CF
:1000E000E3020000E502000000000000E70200005B
:1000F000E9020000EB020000ED020000EF02000048
:10010000D5100000F3020000F5020000F702000025
:100110000000000000000000F9020000FB020000E7
:10012000FD020000FF02000001030000912A000010
:100130000503000007030000090300000B03000093
:1001400000000000000000000000000000000000AF
:100150000D0300000F030000110300001303000053
:10016000000000000000000000000000000000008F
:10017000000000000000000000000000000000007F
:10018000000000000000000000000000000000006F
:10019000000000000000000000000000000000005F
:1001A000000000000000000000000000000000004F
:1001B0001503000017030000190300001B030000D3
:1001C0001D0300001F0300002103000023030000A3
:1001D0002503000027030000290300002B03000073
:1001E0002D0300002F030000310300000000000079
:1001F0000000000033030000350300003703000057
:10020000390300003B030000000000000000000074
:100210003D0300003F0300004103000043030000D2
:100220004503000047030000490300004B030000A2
:100230004D0300004F030000510300005303000072
:100240005503000057030000590300005B03000042
:100250005D0300005F030000610300006303000012
:10026000650300006703000069030000DFF80CD09D
:1002700000F07CF8004800474D2C0000F01B0020E7
:10028000FEE7FEE7FEE7FEE7FEE7FEE7FEE7FEE746
:10029000FEE7FEE7FEE7FEE7FEE7FEE7FEE7FEE736
:1002A000FEE7FEE7FEE7FEE7FEE7FEE7FEE7FEE726
:1002B000FEE7FEE7FEE7FEE7FEE7FEE7FEE7FEE716
:1002C000FEE7FEE7FEE7FEE7FEE7FEE7FEE7FEE706
:1002D000FEE7FEE7FEE7FEE7FEE7FEE7FEE7FEE7F6
:1002E000FEE7FEE7FEE7FEE7FEE7FEE7FEE7FEE7E6
:1002F000FEE7FEE7FEE7FEE7FEE7FEE7FEE7FEE7D6
:10030000FEE7FEE7FEE7FEE7FEE7FEE7FEE7FEE7C5
:10031000FEE7FEE7FEE7FEE7FEE7FEE7FEE7FEE7B5
:10032000FEE7FEE7FEE7FEE7FEE7FEE7FEE7FEE7A5
:10033000FEE7FEE7FEE7FEE7FEE7FEE7FEE7FEE795
:10034000FEE7FEE7FEE7FEE7FEE7FEE7FEE7FEE785
:10035000FEE7FEE7FEE7FEE7FEE7FEE7FEE7FEE775
:10036000FEE7FEE7FEE7FEE7FEE70000064C074D6E
:1003700006E0E06840F0010394E807009847103475
:10038000AC42F6D3FFF776FFD82F0000F82F00001D
:100390004EF68850CEF20000016841F47001016011
:1003A0000148804701480047B10300006D0200008A
:1003B00010B54FF08070406CC16D0148884710BD8A
:1003C000800600C1F8B54FF08070406A00210269D4
:1003D000FE4890474FF08070406D016C0E208847BA
:1003E0000546CDB9082000904005406DF84BF74A0E
:1003F0004832012106680E20B04705E04FF08070BA
:10040000406D41690E2088474FF08070406DC16992
:100410000E2088470028F1D00024F7E1EC4850F87E
:100420002400EC490988884212D2EB48005D00EBB9
:10043000800101EBC000E949085C20F00400E649B6
:10044000095D01EB810202EBC101E44A505412E064
:10045000E148005D00EB800101EBC000DF49085C72
:1004600020F00400001DDC49095D01EB810202EB74
:10047000C101DA4A5054D848005D00EB800101EB1D
:10048000C000D649085CC0F3800000287ED0D24866
:10049000005D00EB800101EBC000D049085CC0F3B7
:1004A000400000285ED0CC48005D00EB800101EBED
:1004B000C000CA4908444078401CC749095D01EBA7
:1004C000810202EBC101C54A11444870C248005D77
:1004D00000EB800101EBC000114608444078C828B9
:1004E0003FDDBD48005D00EB800101EBC00011461F
:1004F000085C8108B848005D00EB800202EBC00098
:10050000B64A105C61F30000B349095D01EB81025A
:1005100002EBC101B14A5054AF48005D00EB8001CD
:1005200001EBC0001146085C20F00200AA49095DF9
:1005300001EB810202EBC101A84A5054A648005DBC
:1005400000EB800101EBC0001146085C20F0F000D8
:100550001030A149095D01EB810202EBC1019F4A04
:10056000505451E19C48005D00EB800101EBC0005C
:100570009A49085C20F00200801C9749095D01EB54
:10058000810202EBC101954A505400E022E028208C
:100590009149095D01EB810202EBC1018F4A1144CF
:1005A000487000208C49095D01EB810202EBC1011A
:1005B0008A4A114488708848005D00EB800101EB95
:1005C000C0001146084486490A6840F8052F49686A
:1005D000416019E18048005D00EB800101EBC00043
:1005E0007E49085C00F0010000287DD07A48005D5B
:1005F00000EB800101EBC0007849085CC0F34000CB
:1006000000285ED07448005D00EB800101EBC00063
:10061000724908444078401C6F49095D01EB810232
:1006200002EBC1016D4A114448706B48005D00EB5C
:10063000800101EBC000114608444078C82890DDD5
:100640006548005D00EB800101EBC0001146085CCD
:1006500081086148005D00EB800202EBC0005F4A48
:10066000105C61F300005C49095D01EB810202EB63
:10067000C1015A4A50545848005D00EB800101EB1B
:10068000C0001146085C20F002005349095D01EBEF
:10069000810202EBC101514A50544F48005D00EB0A
:1006A000800101EBC0001146085C20F0F000103022
:1006B0004949095D01EB810202EBC101474A5054EF
:1006C000A2E04548005D00EB800101EBC00043491A
:1006D000085C20F00200801C3F49095D01EB8102AB
:1006E00002EBC1013D4A00E023E0505428203A4982
:1006F000095D01EB810202EBC101384A11444870E7
:1007000000203549095D01EB810202EBC101334A4A
:10071000114488703048005D00EB800101EBC0009F
:10072000114608442E490A6840F8052F496841607F
:100730006AE02948005D00EB800101EBC000274919
:1007400008448078401C2449095D01EB810202EBDA
:10075000C101224A114488701F48005D00EB8001EE
:1007600001EBC0001146084480780F284CDD1A4880
:10077000005D00EB800101EBC0001146085C8108C0
:100780001548005D00EB800202EBC000134A105CCC
:1007900061F300001049095D01EB810202EBC10128
:1007A0000E4A50540C48005D00EB800101EBC00084
:1007B0001146085C20F002000749095D01EB810247
:1007C00002EBC101054A505400200BE000800340B9
:1007D0005C0D00203C000020942E0000480C0020FE
:1007E000320000200B49095D01EB810202EBC101DF
:1007F000094A114448700749095D01EB810202EB87
:10080000C101054A11448870601CC4B2082CFFF66F
:1008100005AEF8BD942E0000480C0020F8B54FF04E
:100820008070406A01210269FE4890474FF0807055
:10083000406D016C0F2088470546CDB9042000901B
:100840008005406DF84BF74A6832012106680F2099
:10085000B04705E04FF08070406D41690F20884738
:100860004FF08070406DC1690F2088470028F1D09B
:100870000824F8E1EC48203850F82400EB490988B6
:10088000884212D2EA48005D00EB800101EBC00013
:10089000E849085C20F00400E549095D01EB8102AC
:1008A00002EBC101E34A505412E0E148005D00EB65
:1008B000800101EBC000DF49085C20F00400001D4E
:1008C000DB49095D01EB810202EBC101D94A5054B9
:1008D000D748005D00EB800101EBC000D549085C02
:1008E000C0F3800000287DD0D148005D00EB80017E
:1008F00001EBC000CF49085CC0F3400000285ED087
:10090000CB48005D00EB800101EBC000C949084401
:100910004078401CC649095D01EB810202EBC10130
:10092000C44A11444870C248005D00EB800101EBED
:10093000C000114608444078C8283FDDBC48005D2F
:1009400000EB800101EBC0001146085C8108B8484B
:10095000005D00EB800202EBC000B64A105C61F360
:100960000000B349095D01EB810202EBC101B14A0C
:100970005054AF48005D00EB800101EBC000114610
:10098000085C20F00200AA49095D01EB810202EB3C
:10099000C101A84A5054A648005D00EB800101EB5C
:1009A000C0001146085C20F0F0001030A049095D3D
:1009B00001EB810202EBC1019E4A505451E19C4877
:1009C000005D00EB800101EBC0009A49085C20F05B
:1009D0000200801C9649095D01EB810202EBC10116
:1009E000944A00E023E0505428209149095D01EB2E
:1009F000810202EBC1018F4A1144487000208C49EA
:100A0000095D01EB810202EBC1018A4A1144887041
:100A10008748005D00EB800101EBC00011460844EF
:100A200085490A6840F8052F4968416019E1804806
:100A3000005D00EB800101EBC0007E49085C00F026
:100A4000010000287ED07A48005D00EB800101EBB8
:100A5000C0007849085CC0F3400000285ED07448AC
:100A6000005D00EB800101EBC00072490844407852
:100A7000401C6F49095D01EB810202EBC1016D4A27
:100A8000114448706A48005D00EB800101EBC00032
:100A9000114608444078C82890DD6548005D00EBA9
:100AA000800101EBC0001146085C81086048005DD0
:100AB00000EB800202EBC0005E4A105C61F30000B4
:100AC0005B49095D01EB810202EBC101594A5054B7
:100AD0005748005D00EB800101EBC0001146085C47
:100AE00020F002005249095D01EB810202EBC101D5
:100AF000504A50544E48005D00EB800101EBC000AD
:100B00001146085C20F0F00010304949095D01EB06
:100B1000810202EBC101474A5054A2E04448005D03
:100B200000EB800101EBC0004249085C20F00200AC
:100B3000801C3F49095D01EB810202EBC1013D4A86
:100B4000505400E022E028203949095D01EB810280
:100B500002EBC101374A1144487000203449095D55
:100B600001EB810202EBC101324A11448870304826
:100B7000005D00EB800101EBC000114608442E49E6
:100B80000A6840F8052F496841606AE02848005D1E
:100B900000EB800101EBC000264908448078401C2E
:100BA0002349095D01EB810202EBC101214A114495
:100BB00088701F48005D00EB800101EBC00011460A
:100BC000084480780F284CDD1948005D00EB800157
:100BD00001EBC0001146085C81081548005D00EB80
:100BE000800202EBC000134A105C61F30000104960
:100BF000095D01EB810202EBC1010E4A50540C4821
:100C0000005D00EB800101EBC0001146085C20F0A4
:100C100002000749095D01EB810202EBC101054AAF
:100C200050540BE0008003407C0D00203C0000206D
:100C3000942E0000480C00203200002000200C49B7
:100C4000095D01EB810202EBC1010A4A11444870BF
:100C50000749095D01EB810202EBC101054A11441C
:100C60008870601CC4B20C2CFFF604AEF8BD000006
:100C7000942E0000480C0020F8B54FF08070406AB8
:100C800002210269FE4890474FF08070406D016C70
:100C9000102088470546CDB9042000908005406D9E
:100CA000F84BF74A8832012106681020B04705E06A
:100CB0004FF08070406D4169102088474FF0807080
:100CC000406DC169102088470028F1D00C24F8E15C
:100CD000EC48303850F82400EB490988884212D299
:100CE000EA48005D00EB800101EBC000E849085CC8
:100CF00020F00400E549095D01EB810202EBC1012E
:100D0000E34A505412E0E148005D00EB800101EB42
:100D1000C000DF49085C20F00400001DDB49095DCC
:100D200001EB810202EBC101D94A5054D748005D62
:100D300000EB800101EBC000D549085CC0F38000E6
:100D400000287DD0D148005D00EB800101EBC000A0
:100D5000CF49085CC0F3400000285ED0CB48005D5E
:100D600000EB800101EBC000C94908444078401CF9
:100D7000C649095D01EB810202EBC101C44A11447D
:100D80004870C248005D00EB800101EBC0001146D5
:100D900008444078C8283FDDBC48005D00EB800176
:100DA00001EBC0001146085C8108B848005D00EB0B
:100DB000800202EBC000B64A105C61F30000B34948
:100DC000095D01EB810202EBC101B14A5054AF4809
:100DD000005D00EB800101EBC0001146085C20F0D3
:100DE0000200AA49095D01EB810202EBC101A84A98
:100DF0005054A648005D00EB800101EBC000114695
:100E0000085C20F0F0001030A049095D01EB810280
:100E100002EBC1019E4A505451E19C48005D00EB39
:100E2000800101EBC0009A49085C20F00200801CA0
:100E30009649095D01EB810202EBC101944A00E091
:100E400023E0505428209149095D01EB810202EB17
:100E5000C1018F4A1144487000208C49095D01EBA3
:100E6000810202EBC1018A4A114488708748005D03
:100E700000EB800101EBC0001146084485490A6877
:100E800040F8052F4968416019E18048005D00EB9A
:100E9000800101EBC0007E49085C00F001000028E1
:100EA0007ED07A48005D00EB800101EBC0007849FC
:100EB000085CC0F3400000285ED07448005D00EB81
:100EC000800101EBC000724908444078401C6F4922
:100ED000095D01EB810202EBC1016D4A11444870CA
:100EE0006A48005D00EB800101EBC0001146084438
:100EF0004078C82890DD6548005D00EB800101EB7B
:100F0000C0001146085C81086048005D00EB80026B
:100F100002EBC0005E4A105C61F300005B49095DB2
:100F200001EB810202EBC101594A50545748005D60
:100F300000EB800101EBC0001146085C20F00200CC
:100F40005249095D01EB810202EBC101504A505444
:100F50004E48005D00EB800101EBC0001146085CCB
:100F600020F0F00010304949095D01EB810202EBED
:100F7000C101474A5054A2E04448005D00EB8001A3
:100F800001EBC0004249085C20F00200801C3F4990
:100F9000095D01EB810202EBC1013D4A505400E0C2
:100FA00022E028203949095D01EB810202EBC101F1
:100FB000374A1144487000203449095D01EB810231
:100FC00002EBC101324A114488703048005D00EBE9
:100FD000800101EBC000114608442E490A6840F820
:100FE000052F496841606AE02848005D00EB8001F8
:100FF00001EBC000264908448078401C2349095D64
:1010000001EB810202EBC101214A114488701F48A3
:10101000005D00EB800101EBC000114608448078C0
:101020000F284CDD1948005D00EB800101EBC0008A
:101030001146085C81081548005D00EB800202EB58
:10104000C000134A105C61F300001049095D01EB18
:10105000810202EBC1010E4A50540C48005D00EBC6
:10106000800101EBC0001146085C20F00200074936
:10107000095D01EB810202EBC101054A50540BE00E
:10108000008003408C0D00203C000020942E0000C6
:10109000480C00203200002000200C49095D01EBC3
:1010A000810202EBC1010A4A114448700749095DF7
:1010B00001EB810202EBC101054A11448870601CFA
:1010C000C4B2102CFFF604AEF8BD0000942E000050
:1010D000480C0020F8B54FF08070406A002102698A
:1010E000FE4890474FF08070406D016CFC48884787
:1010F0000546CDB9082000904005406DF94BF74AF0
:10110000483201210668F648B04705E04FF080708C
:10111000406D4169F24888474FF08070406DC16969
:10112000EF4888470028F1D01024FAE1ED48403814
:1011300050F82400EC490988884212D2EB48005D3F
:1011400000EB800101EBC000E949085C20F00400DD
:10115000E649095D01EB810202EBC101E44A50540A
:1011600012E0E248005D00EB800101EBC000E049C5
:10117000085C20F00400001DDC49095D01EB8102E0
:1011800002EBC101DA4A5054D848005D00EB8001FF
:1011900001EBC000D649085CC0F3800000287DD078
:1011A000D248005D00EB800101EBC000D049085C33
:1011B000C0F3400000285ED0CC48005D00EB800109
:1011C00001EBC000CA4908444078401CC749095D8A
:1011D00001EB810202EBC101C54A11444870C348CA
:1011E000005D00EB800101EBC0001146084440782F
:1011F000C8283FDDBD48005D00EB800101EBC00069
:101200001146085C8108B948005D00EB800202EBE2
:10121000C000B74A105C61F30000B449095D01EBFE
:10122000810202EBC101B24A5054B048005D00EBAC
:10123000800101EBC0001146085C20F00200AB49C0
:10124000095D01EB810202EBC101A94A5054A74894
:10125000005D00EB800101EBC0001146085C20F04E
:10126000F0001030A149095D01EB810202EBC101E0
:101270009F4A505453E19D48005D00EB800101EB13
:10128000C0009B49085C20F00200801C9749095D62
:1012900001EB810202EBC101954A00E023E05054CA
:1012A00028209249095D01EB810202EBC101904ABD
:1012B0001144487000208D49095D01EB810202EB69
:1012C000C1018B4A114488708848005D00EB8001A1
:1012D00001EBC0001146084486490A6840F8052F12
:1012E000496841601BE18148005D00EB800101EB32
:1012F000C0007F49085C00F0010000287ED07B48D8
:10130000005D00EB800101EBC0007949085CC0F38F
:10131000400000285ED07548005D00EB800101EBC5
:10132000C000734908444078401C7049095D01EBD6
:10133000810202EBC1016E4A114448706B48005DA6
:1013400000EB800101EBC000114608444078C8283A
:1013500090DD6648005D00EB800101EBC0001146A6
:10136000085C81086148005D00EB800202EBC00070
:101370005F4A105C61F300005C49095D01EB81028A
:1013800002EBC1015A4A50545848005D00EB8001FD
:1013900001EBC0001146085C20F002005349095DD2
:1013A00001EB810202EBC101514A50544F48005DEC
:1013B00000EB800101EBC0001146085C20F0F0005A
:1013C00010304A49095D01EB810202EBC101484A34
:1013D0005054A4E04548005D00EB800101EBC000E3
:1013E0004349085C20F00200801C4049095D01EB84
:1013F000810202EBC1013E4A505400E022E0282065
:101400003A49095D01EB810202EBC101384A1144FE
:10141000487000203549095D01EB810202EBC101F2
:10142000334A114488703148005D00EB800101EBC4
:10143000C000114608442F490A6840F8052F496842
:1014400041606CE02948005D00EB800101EBC000C9
:10145000274908448078401C2449095D01EB81023A
:1014600002EBC101224A114488702048005D00EB64
:10147000800101EBC0001146084480780F284EDD42
:101480001A48005D00EB800101EBC0001146085CCA
:1014900081081648005D00EB800202EBC000144A90
:1014A000105C61F300001149095D01EB810202EB60
:1014B000C1010F4A50540D48005D00EB800101EB63
:1014C000C0001146085C20F002000849095D01EBEC
:1014D000810202EBC101064A50540DE00090034026
:1014E000180001009C0D00203C000020942E0000FC
:1014F000480C00203200002000201949095D01EB52
:10150000810202EBC101174A114448701449095D78
:1015100001EB810202EBC101124A11448870601C88
:10152000C4B2152CFFF602AE0F480078C72802DDC2
:1015300000200D4908700D48C06C0D490A4A127808
:1015400041F822000948816C0A48074A127840F89D
:10155000221005480078401C03490870F8BD0000BF
:10156000942E0000480C00203A0000205C0D002062
:10157000B00D0020D010002038B54FF08070406DC5
:10158000C16D0E2088474FF08070406D0E21026BB8
:10159000084690474FF08070406D0121C26A0E20CE
:1015A00090474FF08070406D4D49826B0E20904700
:1015B000082000904005406D4A4B4B4A01210468C9
:1015C0000E20A0474FF08070406D41690E20884783
:1015D0004FF08070406DC16D0F2088474FF08070D4
:1015E000406D0E21026B0F2090474FF08070406DD0
:1015F0000121C26A0F2090474FF08070406D3B4937
:10160000826B0F209047042000908005406D354B81
:101610002033354A2032012104680F20A0474FF0C3
:101620008070406D41690F2088474FF08070406D99
:10163000C16D102088474FF08070406D0E21026B05
:10164000102090474FF08070406D0121C26A102039
:1016500090474FF08070406D2449826B1020904776
:10166000042000908005406D1E4B30331E4A4032EE
:10167000012104681020A0474FF08070406D41693F
:10168000102088474FF08070406DC16D1848884722
:101690004FF08070406D0E21026B154890474FF05F
:1016A0008070406D0121C26A114890474FF08070F0
:1016B000406D0B49826B0E48904708200090400512
:1016C000406D084B40330B4A012104680848A0478D
:1016D0004FF08070406D41690548884738BD000073
:1016E00000C000AE5C0D002048800340008000AECA
:1016F000180001004890034010B500F099F94FF030
:101700008070406C8169C74888474FF08070406C9A
:101710004169C448884700BF4FF08070406CD0F8E2
:101720008C10C04888470028F6D04FF08070406A7F
:101730000021826DBC4890474FF08070406A0021C4
:101740008269B94890474FF08070406A01218269F0
:10175000B54890474FF08070406A02218269B248D4
:1017600090474FF08070406A002305221946C469F3
:10177000AD48A0474FF08070406A0123052219460A
:10178000C469A948A0474FF08070406A022305222F
:101790001946C469A448A0474FF08070406A0023EE
:1017A0001A461946046AA048A0474FF08070406A64
:1017B00001231A460021046A9B48A0474FF080701D
:1017C000406A02231A460021046A9748A0474FF056
:1017D0008070406A03231A460021046A9248A04799
:1017E0004FF08070406A04231A460021046A8E4834
:1017F000A0474FF08070406A05231A460021046A12
:101800008948A0474FF08070406A06231A4600219D
:10181000046A8548A0474FF08070406A672307221A
:101820000021046A8048A0474FF08070406A082376
:1018300000220121046A7C48A0474FF08070406A72
:10184000092301221146046A7748A0474FF08070AF
:10185000406A0A2302220121046A7348A0474FF01C
:101860008070406A6B2303220121046A6E48A047FE
:101870004FF08070406A0C2300220221046A6A48FB
:10188000A0474FF08070406A0D2301220221046AB4
:101890006548A0474FF08070406A0E23022211462F
:1018A000046A6148A0474FF08070406A6F230322AA
:1018B0000221046A5C48A0474FF08070406C816947
:1018C0005848401C88474FF08070406C416955482B
:1018D000401C884700BF4FF08070406CD0F88C10DF
:1018E0005048401C88470028F5D04FF08070406A6F
:1018F0000021826D4D4890474FF08070406A002172
:1019000082694A4890474FF08070406A0023052260
:101910001946C4694548A0474FF08070406A4FF4AB
:10192000807300221146046A4048A0474FF080703F
:10193000406A40F2011301220021046A3B48A0479B
:101940004FF08070406A4FF4817302220021046AD4
:101950003648A0474FF08070406A40F203130322DC
:101960000021046A3148A0474FF08070406A4FF46C
:10197000B27304220021046A2C48A047FFF7FCFD43
:101980004FF08070406A00214269274890474FF02D
:101990008070406A01214269234890474FF080706F
:1019A000406A02214269204890474FF08070406AA7
:1019B000002142691D4890474FF08070406A002125
:1019C0008268194890474FF08070406A0121826810
:1019D000154890474FF08070406A02218268124893
:1019E00090474FF08070406A002182680F4890470E
:1019F0004FF08070806C01681E2088474FF0807027
:101A0000806C01681F2088474FF08070806C0168EF
:101A1000202088474FF08070806C01684020884704
:101A200010BD0000003800F000800340009003402B
:101A300010B50F210C4800F0D0FCBF210B4800F07E
:101A4000CCFC0B480B490860FF20091D0860FF21F2
:101A5000094800F0C2FC0020064908603021074810
:101A600000F0BBFC10BD000000F0054000C00540C8
:101A70004B434F4C20B5054000B005400090054059
:101A80000020002109E04206100E054A52F82120EC
:101A900012680243D0B24A1CD1B20429F3DB70476A
:101AA000842E000010B510480078E0B10F481049AE
:101AB000086100230A4601210E4800F026F90020A3
:101AC0000949087002200C49086000204860012084
:101AD00088600820C8600548086100230A46022182
:101AE000044800F0D0F910BD2000002022000020A2
:101AF000200C002000000440340C002070B5044687
:101B00000D461E4804604FF08070406C81691C488F
:101B100088471C4800F0B1F81B4A2946194800F0D4
:101B20006FF80E21174800F0DCF8372000F064FC55
:101B3000144800F09DF806201449086040F2FF7038
:101B400048600A2088600820C86002230A460121F4
:101B50000C4800F098F902200D4908600020486008
:101B6000012088600820C8600A48086100230A46EE
:101B70000221044800F087F970BD00001800002021
:101B8000003400F00000044040420F00200C002010
:101B9000340C00202A00002010B50021144800F069
:101BA000A4F80446B4F5004F08D10021104800F015
:101BB0001EFA044601200F49087017E0012C0FD1CE
:101BC00001210B4800F07AF80B480068401C0A49D4
:101BD000086001200949087000200649087005E0E6
:101BE000022C03D10221024800F068F810BD000069
:101BF00000000440210000201C00002020000020E4
:101C0000B1FBF2F3B1FBF3FC70B4944588BF5B1CED
:101C1000B3F5984F27D81322B3FBF2FC0CFB02F468
:101C20009C4219D1114B03EB420333F8085C036863
:101C30009BB243F041040460ACF1010404F03F06A0
:101C40003543C560C4F38314846103600CFB02F068
:101C5000B1FBF0F070BC7047521E042ADCD25B1C52
:101C6000B3F5984FD7D970BC00207047AA2E00005A
:101C7000016821F001010160704701210160016AE2
:101C800011F4004FFBD1B021416200214163816317
:101C90000121026A12F4004FFBD10162491C202984
:101CA000F7D90C2141620121026A12F4004FFBD1E5
:101CB0000162491C2029F7D940687047B1F5004FEF
:101CC00004BF40687047026A12F4004FFBD108223B
:101CD000426201F03F010162016A11F4004FFBD141
:101CE00070470268114301607047002904BF006912
:101CF000704701291CBF00207047D0F84011D0F870
:101D0000440189B241EA004070472DE9F0014FF0EB
:101D1000730C002B18BF4FF07B0CC0F884C001F08F
:101D20003F06C0F88060D0F8801011F4004FFAD15F
:101D3000D0F888108DB2D0F88C101FFA81FCD0F842
:101D400090108CB2D0F894108BB2D0F89810002775
:101D500089B2976011F4807F03F4005803D0B8F182
:101D6000000F03D006E0B8F1000F03D04FF0400899
:101D7000C2F8088013F4804F04BFC3F38A041460D0
:101D800008D0C3F30C0844EA08441460946844F093
:101D90000404946011F4804F03D0946844F4807478
:101DA000946011F4805F2DD013F4804F0DD0CCF3EC
:101DB0000C0345EA03436FF060445360A3420FD124
:101DC000137A13F0400F0FD10AE0CCF38A03A3F586
:101DD000E0645360FF3C03D1137A13F0400F03D14A
:101DE000936843F0080393601CF4004F03D093689A
:101DF00043F0280393601CF4804F03D0936843F0B2
:101E00001803936011F4006F03D0936843F001034B
:101E1000936011F4806F03D0936843F002039360E2
:101E200011F4004F02BFD760BDE8F001704701F028
:101E30000F0CC2F80CC0117A11F0400F12D1002122
:101E4000156900F19C03BCF1000F0BD953F8044B4A
:101E50006C54491C8C4503D9C4F307246C54491CA9
:101E60006145F3D30421C0F88410C0F88060D0F835
:101E7000801011F4004FFAD1906840F0800090601B
:101E8000BDE8F00170472DE9FF4F1C464FF0000AF6
:101E9000016A11F4004FFBD1D2F80080B8F5006F51
:101EA00006D2117A11F0040F08BF4FF0000B01D0D9
:101EB0004FF0010B00274FF093093D4639463E464F
:101EC000BC46052C24BF04B0BDE8F08FDFE804F069
:101ED00003071A0A14004FF480714D0110E04FF40B
:101EE00080710FE04FF4005569104FF6FF7641F610
:101EF000FF7C4FF0D30905E04FF400554FF49051AB
:101F00004FF0010A946841F6FF7314F0080F0CD0EB
:101F1000BBF1000F08BF0026D2F804C00EBF03EAD1
:101F20008C0C1FFA8CF6CCF30C4C4FF0280E3EEACA
:101F3000040E08BF4CF4004C4FF0180E3EEA040E9D
:101F400008BF4CF4804C14F0380F1CBF41F4805192
:101F500049F0400949F02009BBF1000F07D0C8F350
:101F60000C431FFA88F72B4343F4404804E003EA8C
:101F700088032B4343F40048D56805F00F030B4357
:101F800014F4007F08BF43F0800314F0010F18BF62
:101F900043F4006314F0020F18BF43F48063BAF1F6
:101FA000000F14D00021D2F810A000F13C04002D45
:101FB0000DD91AF80120491C8D4204D91AF801B034
:101FC000491C42EA0B2244F8042BA942F1D3C0F881
:101FD00024908662C0F82CC00763C0F83480836305
:101FE000019901F03F01016204B0BDE8F08FC1B179
:101FF000012904BFD0F80011D0F8040116D002293D
:1020000004BFD0F82011D0F824010FD0032911BF4C
:102010000021D0F86011D0F8640141EA004108467F
:10202000704741686FF01F024260F8E741EA0041E3
:10203000F5E7D0F8003412F0010F14BF0B438B43C7
:10204000C0F8003412F0020FD0F8202414BF11435E
:1020500022EA0101C0F820147047000010B54FF0CB
:102060008070406C81697C4888474FF08070406C7C
:1020700081697948401C88474FF08070406C8169C5
:102080007548801C88474FF08070406C81697248A9
:10209000C01C88474FF08070406C81696E48001DFD
:1020A00088474FF08070406C81696B48401D8847BD
:1020B0004FF08070406C81696748801D88474FF001
:1020C0008070406C81696448C01D88474FF0807003
:1020D000406C81696048083088474FF08070406CE0
:1020E00081695D48093088475B4800F0B7F95A4874
:1020F000401C00F0B3F95848801C00F0AFF9564876
:10210000C01C00F0ABF95448001D00F0A7F952487C
:10211000401D00F0A3F95048801D00F09FF94E4883
:10212000C01D00F09BF94C48083000F097F94FF0C3
:102130008070006A8021C26B484890474FF08070E1
:10214000006A816E464888474FF08070006A816E51
:10215000444888474FF08070006AC021426D424871
:1021600090474FF08070006A0121C26B3F48904752
:102170004FF08070006A0022012103683B489847B5
:102180004FF08070006A816E394888474FF0807048
:10219000006A816E374888474FF08070006A3021AE
:1021A000426D314890474FF08070006A0221C26B47
:1021B0002E4890474FF08070006A00220221036889
:1021C0002A4898472C482D490860FF20091D0860BF
:1021D0004FF08070006A816E294888474FF0807008
:1021E000006A816E274888474FF08070006A092195
:1021F000026B1A4890470020204908604FF0807019
:10220000006A0F21826B204890474FF08070006A6F
:102210000F21826B1D4890474FF08070006ABF21EC
:10222000826B1B48904714481A490860FF20091D1B
:1022300008604FF08070006AFF21826B164890475B
:102240000020144908604FF08070006A3021826BD2
:102250001248904710BD0000000800F000D0054073
:1022600001180200011C020000A00540008005408A
:1022700002100200021402004B434F4C20D50540CF
:1022800003000500030C05000010064000F00540A7
:1022900000C0054020B5054000B005400090054055
:1022A0002DE9F00701274FF0000C0326C2F3411877
:1022B00000F6C47407FA0CF50D4210D0D0F8C49F94
:1022C0004FEA4C0506FA05FA29EA0A09C4F8009013
:1022D000D4F8009008FA05F549EA050525600CF1E7
:1022E000010C0CF0FF0CBCF1080FE3D3D0F800C5D3
:1022F00012F0010F14BF4CEA010C2CEA010CC0F8DB
:1023000000C5D0F804C512F0020F14BF4CEA010C4E
:102310002CEA010CC0F804C5D0F808C512F0040F6F
:1023200014BF4CEA010C2CEA010CC0F808C5D0F827
:1023300018C512F0080F14BF4CEA010C2CEA010C6E
:10234000C0F818C512F0100FD0F83C2514BF0A438E
:102350008A43C0F83C25D0F80C2513F0010F14BFB8
:102360000A438A43C0F80C25D0F8102513F0020F59
:1023700014BF0A438A43C0F81025D0F8142513F07F
:10238000040F14BF0A438A43C0F81425D0F81C2553
:1023900013F0080F14BF0A438A43C0F81C25D0F875
:1023A000442513F4007F14BF0A438A43C0F8442530
:1023B000D0F8402513F4407F14BF0A438A43C0F885
:1023C0004025D0F82825002B0CBF114322EA01013B
:1023D000C0F82815BDE8F007704730B50C46054633
:1023E0000022FFF726FE21462846BDE830400023A4
:1023F0000122FFF755BF00001649042804BF0868F2
:1024000040F4803018D0052804BF086840F400303C
:1024100012D0062812D00F2815D0102838BF7047C8
:10242000103800F01F01012202FA01F142090A48A6
:1024300050F822000160704708607047086840F457
:102440008020086070474FF0E020016941F00201F0
:102450000161704724ED00E0882F00000449CA6E36
:1024600000F00F00012303FA00F01043C866704724
:1024700000E00F40C0F307230749C0B2194401F040
:102480007043C1F3130143EA411141EA800040F077
:10249000007001220260704700E60F4010B54FF057
:1024A0008070406C81690C4888474FF08070406CA8
:1024B00041690948884700BF4FF08070406CD0F8F0
:1024C0008C10054888470028F6D04FF08071096FBE
:1024D000486C804710BD0000005800F002480068BA
:1024E000401C0149086070470400002010B50F48E7
:1024F00000684FF47A71B0FBF1F44FF08070806B9C
:102500004169204688474FF08070806C20218269A5
:102510000F2090474FF08071896BC86880474FF05B
:102520008071896B4868804710BD00000000002062
:1025300010B501210D4800F0D1F84FF08070006A0D
:1025400003680B48027880210A48984708480078B9
:10255000C0430749087008480068401C06490860E5
:1025600006480068401C0549086010BD0000034093
:102570000C00002000D005400800002010000020C2
:102580000167704710B51248FFF774FF2221114808
:1025900000F024F81048006842F21071B0FBF1F42A
:1025A0002246FF210B4800F09FF801210948FFF760
:1025B000E7FF0122FF21074800F040F8012105480C
:1025C00000F08EF8FF21034800F05EF810BD000017
:1025D000010400F0001003400000002010B4C268A5
:1025E00022F0010222F48072C2600A0E0260114AD7
:1025F0001268114B02EA030CACF18054CBB2C1F368
:102600000722B4F520240DD14FF4704C0CEA1114BC
:10261000234343F4007343600CEA1121114341F456
:10262000007104E043F40071416042F40071816084
:1026300010BC704700E00F400000FF70104B1B689B
:10264000DFF840C003EA0C03A3F1805CBCF5202C4A
:102650000BD140F201130B40D0F870C0002A14BF18
:102660004CEA03032CEA0303036742F220031940F8
:10267000002AC26814BF114322EA0101C1607047F9
:1026800000E00F400000FF70C26840F201131940E3
:102690001143C1607047000010B50D48FFF7EAFE16
:1026A00022210C48FFF79AFF0B4800684208FF21DF
:1026B000084800F019F80121064800F011F823201D
:1026C000FFF79AFEFF210348FFF7DEFF10BD000071
:1026D000000400F000000340000000204162704749
:1026E000826911438161704711F0FF0F18BF826248
:1026F00011F47F4F18BFC2627047000038B51B4805
:10270000C07900B938BD4FF08070406DC16D184878
:1027100088474FF08070406D0E21026B144890473F
:102720004FF08070406D0121C26A114890474FF010
:102730008070406D4FF0C021826B0D4890470B4870
:10274000C07900904FF08070406D0A4B0A4A012119
:1027500004680748A0474FF08070406D4169044805
:10276000884700200149C87100BFCBE7000800205E
:102770000900010000D000401009002070B5044697
:102780004FF08070406C8169274888474FF0807017
:10279000406C416924488847244800F001FA00BF92
:1027A0004FF08070406CD0F88C101F48884700288C
:1027B000F6D04FF08070406960234FF4E13221463B
:1027C00045691B48A8474FF08070406910220221DC
:1027D000C368174898474FF080704069016E1448ED
:1027E00088474FF0807040690221826D1048904701
:1027F0004FF08070806C40218269162090474FF026
:10280000807040697021426C094890474FF0807099
:10281000806C0168162088474FF080704069C1695C
:102820000348884770BD0000011800F00008002030
:1028300000D0004010B54FF0807040690121C26C9B
:102840004048904704464FF0807040692146026D31
:102850003C48904704F0100038B31CE04FF0807003
:102860004069C16A3748884700B915E04FF0807069
:102870004069416B33488847C1B2334802790079D7
:10288000401C314B187103F1100081542F4800682F
:10289000006819468860E1E700BF2B48006820F413
:1028A000004000F500402849086004F0400038B3BB
:1028B0001CE04FF080704069C16A2248884700B927
:1028C00015E04FF080704069416B1E488847C1B2E7
:1028D0001D4802790079401C1B4B187103F1100050
:1028E00081541A480068006819468860E1E700BF13
:1028F0001548006820F4804000F5804012490860C7
:102900004FF08070406DC16911488847C0B90F48C9
:10291000006800680C49C8600846006820F0005054
:1029200008600846006820F0706000F140700860A0
:102930004FF08070006A0022022103680548984722
:1029400010BD000000D0004000080020140000204E
:10295000090001000080054038B51B48C07900B966
:1029600038BD4FF08070406DC16D184888474FF0FA
:102970008070406D0E21026B144890474FF08070BC
:10298000406D0121C26A114890474FF08070406D40
:102990004FF0C021826B0D4890470B48C0790090E2
:1029A0004FF08070406D0A4B0A4A012104680748C5
:1029B000A0474FF08070406D41690448884700206F
:1029C0000149C87100BFCBE7100A002011000200C6
:1029D00000F00040200B002070B504464FF08070DE
:1029E000406C8169274888474FF08070406C41698E
:1029F00024488847244800F0D3F800BF4FF0807087
:102A0000406CD0F88C101F4888470028F6D04FF053
:102A10008070406960234FF4E132214645691B48CC
:102A2000A8474FF08070406910220221C368174800
:102A300098474FF080704069016E144888474FF006
:102A4000807040690221826D104890474FF080707D
:102A5000806C402182694B2090474FF08070406924
:102A60007021426C094890474FF08070806C01687B
:102A70004B2088474FF080704069C1690348884700
:102A800070BD0000031800F0100A002000F00040A4
:102A900010B54FF0807040690121C26C3C489047EE
:102AA00004464FF0807040692146026D38489047D7
:102AB00004F0100038B31CE04FF080704069C16A28
:102AC0003348884700B915E04FF080704069416B8A
:102AD0002F488847C1B22F4802790079401C2D4BFE
:102AE000187103F1100081542B48006800681946E2
:102AF0008860E1E700BF2748006820F4004000F547
:102B000000402449086004F0400038B31CE04FF056
:102B100080704069C16A1E48884700B915E04FF0CF
:102B200080704069416B1A488847C1B219480279E0
:102B30000079401C174B187103F11000815416489E
:102B40000068006819468860E1E700BF1148006826
:102B500020F4804000F580400E4908604FF08070FE
:102B6000406DC1690D48884780B90B48006800680E
:102B70000849C8600846006820F000500860084610
:102B8000006820F0706000F14070086010BD000027
:102B900000F00040100A0020140000201100020084
:102BA000016821F400410160016821F48041016065
:102BB000016821F470610160016821F00041016049
:102BC000016821F080410160016821F0005101603D
:102BD000016821F080510160016821F0706101609D
:102BE000002141710171C17181718160C1607047C3
:102BF00070B505460C46044805602046FFF7BEFD4B
:102C00002046FFF7E9FE70BD1400002010B54FF01C
:102C10008070006C0121026B8807904730B14FF043
:102C20008070006C01684FF08040884710BD02E062
:102C300008C8121F08C1002AFAD170477047002047
:102C400001E001C1121F002AFBD170474FF08071D3
:102C5000496C086E80475E490860FFF7FFF9FFF78F
:102C600045FC00F0C1F8FFF717FDFFF78BFCFEF7FE
:102C700043FDFFF713FC564801685648FFF7B8FFBD
:102C8000534801685348FEF739FFFEF7F9FE5249F1
:102C900008709BE051480088C0F3C03020B94F480D
:102CA0000088C0F3803040B34FF08070006AFF228C
:102CB000012103684A4898470420484981F81001D7
:102CC0000321464880F81111022180F812110121D8
:102CD00080F81311002180F8141105203F49C871B4
:102CE000FFF73AFE3D48006820F400403B49086089
:102CF0000846006820F4804008603A480088C0F325
:102D0000C03020B937480088C0F3803040B34FF05E
:102D10008070006AFF22022103683148984704202E
:102D2000304981F8100103212E4880F81111022149
:102D300080F81211012180F81311002180F814117C
:102D400005202849C871FFF7D9FC2648006820F4FF
:102D50000040244908600846006820F4804008606C
:102D60001E480068C0F30360A0B11C48C068194940
:102D70000968081A01280DD94FF08070006A0022F6
:102D800001210368164898471448006820F07060D5
:102D90001249086013480068C0F30360A0B11148ED
:102DA000C0680C490968081A01280DD94FF08070D5
:102DB000006A002202210368094898470948006810
:102DC00020F0706007490860FEF76CFE62E70000C3
:102DD00000000020040000200D000020100A002048
:102DE000008005400008002010B54FF08070406C56
:102DF00081690D4888474FF08070806C01683F20E2
:102E000088474FF08071496D486880474FF0807067
:102E1000406D016A054888474FF08070806C202122
:102E200082693E20904710BD000C00F00004002095
:102E30008C7FBE42887FBE42847FBE42807FBE427E
:102E4000807FB842847FB842887FB8428C7FB84286
:102E50008C7FB642887FB642847FB642807FB6427E
:102E60009C7FB642987FB642947FB642907FB6422E
:102E7000947FB842907FB842907FB242947FB24232
:102E80009C7FB842807FC242847FC242887FC24218
:102E90008C7FC242070605040C0D0E0F1011121391
:102EA00008090A0B0302010014000001000240128D
:102EB000401380238024C034C035C045C046C0566E
:102EC000C057C067C068C078C07900000007000024
:102ED00000060000000500000004000000030000E0
:102EE00000020000000100000000000000000000DF
:102EF00018ED00E01CED00E020ED00E000E400E053
:102F000004E400E008E400E00CE400E010E400E089
:102F100014E400E018E400E01CE400E020E400E039
:102F200024E400E028E400E02CE400E030E400E0E9
:102F300034E400E038E400E03CE400E040E400E099
:102F400044E400E048E400E04CE400E050E400E049
:102F500054E400E058E400E05CE400E060E400E0F9
:102F600064E400E068E400E06CE400E070E400E0A9
:102F700074E400E078E400E07CE400E080E400E059
:102F800084E400E088E400E000E100E004E100E027
:102F900008E100E00CE100E010E100E080E100E089
:102FA00084E100E088E100E08CE100E090E100E0F5
:102FB00000E200E004E200E008E200E00CE200E0F1
:102FC00010E200E080E200E084E200E088E200E05D
:102FD0008CE200E090E200E0F82F0000000000200A
:102FE000400000002E2C000038300000400000207F
:102FF000B01B00003E2C000000000000000000009C
:1030000000000000000000000000000000000000C0
:1030100000000000000000000000000000000000B0
:1030200000000000000000000000000000000000A0
:0830300000000000FA0000009E
:040000050000026D88
:00000001FF
